:020000040800F2
:1000000090190020550200080D440008E93C000842
:10001000094400084D040008915800080000000041
:10002000000000000000000000000000194400086B
:10003000890900080000000011440008614600081A
:100040006F0200086F0200086F0200086F020008CC
:10005000710A0008154400086F0200086F020008CA
:10006000A50900086F020008AD0900084109000851
:100070004D0900086F020008590900086F020008C6
:100080006F0200086F0200086F0200086F0200088C
:100090006F0200086F0200086F020008B50900082F
:1000A000254700086F0200086F0200086F02000871
:1000B000314700083D470008494700086F02000823
:1000C0006F0200086F0200086F0200086F0200084C
:1000D0006F020008B94E00086F020008454F000883
:1000E0008D0900086F0200086F0200086F02000807
:1000F0006F0200086F0200086F020008650900081F
:100100006F0200086F020008554700086F020008E0
:100110006F0200089D4800086F0200086F02000887
:100120006F0200086F020008710900086F020008E2
:100130006F0200086F0200086F0200086F020008DB
:100140006F0200086F0200086F0200086F020008CB
:100150006F0200086F0200087D0900086F020008A6
:100160006F0200086F0200086F0200086F020008AB
:100170006F0200086F0200086F0200080000000014
:100180006F0200086F02000800F002F800F052F859
:1001900014A696E8000CB244B344DA4501D100F04D
:1001A00049F8BAE80F000FA696E83000A5EB040561
:1001B00004EB0607AAEB0704A7F101074FEA1515A0
:1001C0004FEA3414A4F10104AC4201D300F032F838
:1001D00013F0010F18BFFB1A43F0010300F001F800
:1001E000DBE71847EC6100000C620000103A24BF06
:1001F00078C878C1FAD8520724BF30C830C144BF8C
:1002000004680C6070470000704700000023002461
:1002100000250026103A28BF78C1FBD8520728BF16
:1002200030C148BF0B6070471FB505F0B3FE1FBD5E
:1002300010B510BD00F0D0F81146FFF7F5FF05F03E
:1002400053FC00F0EEF803B4FFF7F2FF03BC00F03C
:10025000F5F800000948804709480047FEE7FEE737
:10026000FEE7FEE7FEE7FEE7FEE7FEE7FEE7FEE766
:1002700004480549054A064B70470000114700082D
:10028000890100089013002090190020901500208B
:100290009015002053EA020C00F069802DE9F04B24
:1002A0004FF00006002B1FBFB3FA83F503FA05F4E5
:1002B00024FA05F65E4012BF1643B2FA82F502FA3E
:1002C00005F4C5F120051EBF22FA05FC44EA0C0422
:1002D000203556EA044C4FEA144418BF641C4FF012
:1002E00000084FF00009904271EB030C39D300294C
:1002F00019BFB1FA81F701FA07F6B0FA80F700FAF0
:1003000007F6C7F120071EBF20FA07FC46EA0C06D5
:100310002037B6FBF4FCA7EB0507103F07F01F0BD7
:10032000CBF120062CFA06F60CFA0BFB44BFB346C1
:100330000026202FA4BF5E464FF0000B5BEA060CA0
:1003400008BF4FF0010B19EB0B0948EB0608ABFB9C
:10035000027C06FB02CC0BFB03CCC01B71EB0C0137
:10036000C1E70B46024641464846BDE8F08B13B54F
:10037000084318BF4FF0FF300146AFF30080BDE8DF
:100380001C4070474FF0000200B513469446964655
:10039000203922BFA0E80C50A0E80C50B1F1200198
:1003A000BFF4F7AF090728BFA0E80C5048BF0CC046
:1003B0005DF804EB890028BF40F8042B08BF7047A4
:1003C00048BF20F8022B11F0804F18BF00F8012B16
:1003D0007047704770477047754600F02BF8AE467F
:1003E00005006946534620F00700854618B020B541
:1003F000FFF73EFFBDE820404FF000064FF000073A
:100400004FF000084FF0000BAC46ACE8C009ACE878
:10041000C009ACE8C009ACE8C00921F007018D466D
:10042000704710B50446AFF300802046BDE8104089
:10043000FFF709BF004870476800002001491820F5
:10044000ABBEFEE72600020070470000FEE700009A
:100450008179012940F00882B0B582B0C1790229C2
:1004600040F0FE81017A01295AD1417A01390729E8
:1004700000F2F681DFE811F0080020001400F4011A
:100480003E00F401F4014E0040F23004C2F20004D8
:100490000546204605F006FB40F2011016E000BFBD
:1004A00040F23004C2F200040546204605F0FAFA94
:1004B00040F201300AE000BF40F23004C2F2000412
:1004C0000546204605F0EEFA40F20120A06001202A
:1004D000E0602046122105F071FA40F61830C2F2B1
:1004E0000000214612224FF6FF7303F0C5FA28469A
:1004F00015E000BF4FF6F471C2F2010151F8042C6F
:100500004BF6EF63CDF6AD639A4208D10A6811321B
:100510000A6004E072B6044601F03EF92046017A12
:1005200002291DD1417A032932D002290CD0012998
:1005300016D10021C4F2020101F58061044608468B
:100540001021002209E000BF0021C4F2020101F5E0
:100550008061044608461021012200F0C5FF2046B4
:10056000017A032940F0D280417A0139052900F24D
:100570007781DFE801F003935167179B0021C4F2F4
:100580000201044608468021002200F0ADFFBBE0D6
:1005900040F2CD01C2F2000101220A70017A032962
:1005A000E2D0B3E0817A01292CD140F2CF04C2F22B
:1005B00000042178012912D140F20001C2F20001A9
:1005C0004FF00E0C4FF0010E0546084603210522A0
:1005D0000023CDE900EC00F069F92178284681B9C3
:1005E00040F20001C2F200014FF00E0C002504465B
:1005F0000846032105220023CDE9005C00F056F9EE
:100600002046817A002940F0808040F2CF01C2F27A
:10061000000100220A7078E040F2D101C2F200012C
:1006200000220A7040F2D201C2F200010A700021D9
:10063000C4F20201044608468021012200F054FF62
:1006400062E000BF817A01295FD140F2CA04C2F2A0
:1006500000042178012912D140F20001C2F2000108
:100660004FF00E0C4FF0010E054608460321042200
:100670000023CDE900EC00F019F921782846002983
:1006800043D140F20001C2F200014FF00E0C0025F0
:10069000044608460321042231E000BF40F2CA01AB
:1006A000C2F2000101220A702FE000BF817A012905
:1006B0002BD140F2CB04C2F200042178012912D1DF
:1006C00040F20001C2F200014FF00E0C4FF0010E9B
:1006D00005460846032106220023CDE900EC00F080
:1006E000E5F82178284681B940F20001C2F2000104
:1006F0004FF00E0C00250446084603210622002375
:10070000CDE9005C00F0D2F82046017A042940F0DF
:10071000A780417A0139062900F2A280DFE801F0C2
:1007200004784C5E10808600017B022900F09280E4
:10073000012940F0958040F2D101C2F200018DE024
:10074000017B11292AD140F2CC01C2F20001012221
:100750000A7040F2DC01C2F200010A8040F6F81192
:10076000C2F200010A6840F6681444F6E763C2F278
:100770000004D362CB6005462046012101F0D6FF7C
:1007800040F6B010C2F2000001689522CA62C26051
:100790002046012101F0CAFF297B2846442900F0A8
:1007A0007F80332976D022295AD140F2CC01C2F27F
:1007B0000001022253E000BF818941F28A3240F6F3
:1007C000F813C2F20002C2F2000311804FF0FF32B0
:1007D0001D6802EB5101E962D9600DE0818940F6A4
:1007E000A832C2F20002118040F6B012C2F200023A
:1007F00013680139D962D16040F66811C2F2000174
:1008000004460846012101F091FF204628E000BF80
:10081000818940F2DC02C2F20002118020E000BFB8
:1008200040F2CE01C2F2000118E000BF0021C4F284
:10083000020101F50061044608461021012200F082
:1008400053FE40F2DC012046C2F2000100220A8081
:1008500006E000BF40F2D201C2F2000101220A709C
:10086000817902B0BDE8B040032912D1C1790229D3
:100870000FD1017A06290CD1417A122909D1C07A07
:10088000012818BF704740F2CB00C2F200000121DE
:100890000170704740F2CC01C2F200010322DEE792
:1008A00040F2CC01C2F200010422D8E72DE9F04366
:1008B00081B0DDE90848994617460E46054605F021
:1008C000F1F8052E2E726F7285F80A90EC7208BF4F
:1008D000022F11D0012E08BF012F07D0022F08BF11
:1008E000012E03D0032F08BF012E17D10120A881AC
:1008F00000200F21A87310E040F66810C2F200003B
:100900000068416A00686973C0F300102873080A20
:10091000A873080CE873080E102168542846414655
:1009200005F04CF840F61830C2F200002946424665
:100930004FF6FF7301B0BDE8F04303F09DB800002F
:1009400040F2E020C2F2000000F0EEB840F2604059
:10095000C2F2000000F0E8B840F2C040C2F200006D
:1009600000F0E2B840F24030C2F2000000F0DCB823
:1009700040F2A030C2F2000000F0D6B840F20040D1
:10098000C2F2000000F0D0B87047000080B54FF40C
:10099000005000F0BFFC4FF48040BDE8804000F004
:1009A000B9BC0000042000F0B5BC0000102000F02D
:1009B000B1BC000080B5202000F0ACFC4020BDE8B8
:1009C000804000F0A7BC000072B600BFFEE7000048
:1009D00080B543F61043C4F20203D3F800C04FF4CD
:1009E000407E2CF440721A601A68032938BF4FEA1F
:1009F000012E42EA0E011960196821F07801196090
:100A0000196841EAC00040F002001860186840F41C
:100A10008030186080BD000043F60040C4F2020040
:100A2000016889050FD5016821F400710160016832
:100A300041F400610160016821F400610160016816
:100A400041F4007101600168490558BF70470168B1
:100A500021F480610160016841F480510160016806
:100A600021F480510160016841F4806101607047A8
:100A700000F056BA70B5866D044600F03BFD94F860
:100A80003510022928D105462068216C026822F021
:100A900016020260426922F08002426109B9A16C2B
:100AA00019B1016821F008010160016821F001011C
:100AB000016000BF20680068C00715D000F01AFD73
:100AC000401B0628F6D320206065032084F83500FB
:100AD000002184F8341070BD802060650120002161
:100AE00084F8341070BD00BFE06D3F2101FA00F0C2
:100AF000B060012084F835000020002184F8341013
:100B000070BD000090F83510022909D1052180F848
:100B100035100068016821F0010101600020704774
:100B20008021416501207047F0B581B0002100911E
:100B300040F22C01C2F200010B68D0E9166148F2C4
:100B4000B51537680822C1F64E358A403A42A3FBF4
:100B500005350CD003681C68640708D51C6824F0B0
:100B600004041C60B260426D42F001024265012241
:100B70008A403A4208D003685B691B0604D5B2601C
:100B8000426D42F00202426504228A403A4208D095
:100B900003681B689B0704D5B260426D42F00402F3
:100BA000426510228A403A4219D001680B681B073F
:100BB00015D5B2600B680A685B0309D4D20509D465
:100BC0000A6822F008020A60016C29B907E000BF38
:100BD000110341D4016C11B1044688472046C26D0F
:100BE000202101FA02F33B4243D001680F68FF065F
:100BF0003FD5B36090F835700B68052F1CD123F0FA
:100C000016030B604B6923F080034B61036C0BB937
:100C1000836C1BB10B6823F008030B603F219140EC
:100C2000B160012180F83510016D0022002980F8A3
:100C3000342054D158E000BF0A685B0310D4D205B9
:100C400012D40A6822F010020A60012180F83510DF
:100C5000002180F8341007E0816C0029BCD1BEE788
:100C6000110301D4416C00E0C16B11B10446884707
:100C70002046416DC1B3416DC9072ED0052180F8D2
:100C800035100168AA0A0B6823F001030B60009B72
:100C90000133934200931AD80B68DB0717D0009BEF
:100CA00001339342009312D80B68DB070FD0009BEF
:100CB0000133934200930AD80B68DB0707D0009BEF
:100CC00001339342009302D80B68DB07DFD1012187
:100CD00080F83510002180F83410C16C21B101B0CA
:100CE000BDE8F040084700BF01B0F0BD2DE9F0417C
:100CF000044600F0FFFBECB10546022084F8350005
:100D00000020216884F83400086820F001000860A1
:100D100021680868C00711D000F0ECFB401B0528D3
:100D2000F6D9032520230320636584F83550BDE8F8
:100D3000F08100BF0120BDE8F08100BF086848F2E3
:100D40003F02CFF21002D4E9013500EA020C04F1AF
:100D50000C0898E8C10143EA0C032B431843D4E97B
:100D6000072E304338431043626A40EA0E00042ADB
:100D700040EA08031CD1206BD4E90A2E40EA0E0099
:100D8000184308604869BEF1000F20F0030040EAF4
:100D9000020040F0040C11D0B8F5005F36D0B8F175
:100DA000000F45D1022A46D0012A3BD032B942E099
:100DB0000B60486920F0070040EA020C01F0F800DF
:100DC0004AF6AB221038CAF6AA22A0FB02231A095F
:100DD00046F2C833C1F814C0C0F600039A5C40F272
:100DE000FF335F284FF03F0021EA030100FA02F0D1
:100DF00088BF0431C4E91612886000230125002051
:100E0000636584F83550BDE8F08100BF032AD5D86A
:100E1000012540230120DFE802F0030E030500BF97
:100E200082E700BFAEF1C070B0FA80F0400904E084
:100E3000032A04D3C2D1CEF300600028BED001251E
:100E400040230120636584F83550BDE8F08100003F
:100E500090F834C0BCF1010F04BF0220704770B598
:100E60004FF0010C80F834C0D0F858E090F835C04D
:100E7000BCF1010F38D14FF0020C80F835C04FF0B3
:100E8000000CC0F854C0D0F800C08468056CC06D78
:100E9000DCF80060402C26F48026CCF80060CCF80A
:100EA00004300B4604BF13460A463F2101FA00F006
:100EB000CCF80830CCF80C20CEF80800DCF80000A4
:100EC00040F01600CCF800002DB1DCF8000040F036
:100ED0000800CCF80000DCF8000040F00100CCF87D
:100EE0000000002070BD00BF002180F834100220F7
:100EF00070BD0000B0B5044600F0FCFA054640F2B3
:100F00002400C2F200000078611C18BF044400BF36
:100F100000F0F0FA401BA042FAD3B0BD70470000C9
:100F2000B0B543F60C44C4F20204206840F2440514
:100F300010F0F20FC2F200052ED02878012807D158
:100F4000E8684FF0FF31E9602168C90608D40DE078
:100F50002878022814BF686928692168C90605D560
:100F6000E96941F01001E9611021216021688906D9
:100F70002AD42168490630D42168090636D421686C
:100F8000890705D5E96941F02001E9610221216065
:100F900000F062F8002028702068C0074BD00120C4
:100FA0002060287801282BD168680138686068685B
:100FB000B0B3E868FFF7B2FFE8680130E860E868BE
:100FC000297AFFF705FD36E0E96941F00801E9619A
:100FD0002021216021684906CED5E96941F004014C
:100FE000E9614021216021680906C8D5E96941F01D
:100FF0000201E9618021216021688907C2D4C7E725
:10100000284610F8141B022903D1FFF705FD05F14E
:1010100010000068FFF782FF002028700BE000BF7F
:101020004FF0FF30E86000202870FFF7F5FC4FF02C
:10103000FF30FFF773FF2878002818BFB0BD606845
:1010400020F07F006060606820F080706060606801
:1010500020F000706060B0BD70470000B0B584B093
:101060001F281BDD202855D040287BD0B0F5005F1D
:1010700040F0BE8040F2C800C2F20000817A01292F
:1010800040F03E81017A012940F03A81C17801297E
:1010900040F036810121817004B0B0BD042800F019
:1010A0009180102840F0A4800024C4F2020420465D
:1010B000102100F00BFA012840F010810A20FFF700
:1010C00019FF2046102100F001FA002800F01881D5
:1010D00020468021012200F007FA40F6F810C2F203
:1010E000000001F027F94FF47F40039040F20150D7
:1010F000C0F223106C46029002A8214603F08EF93C
:1011000040F6D020C2F200002146082202F07EFD07
:1011100004B0B0BD0024C4F202042046202100F037
:10112000D5F905462046202100F0D0F9012D40F0E8
:10113000BF80002800F0E4802046202100F0C6F99E
:10114000002800F0DD802046202100F0BFF90028B3
:1011500000F0D6802046202100F0B8F90028B7D151
:10116000CEE000BF40F2C805C2F20005287A01288F
:1011700040F0C680E878012840F0C2800020C4F228
:10118000020000F580542046402100F09FF901281C
:1011900000F0B6802046402100F098F9012800F0C8
:1011A000AF802046402100F091F9012800F0A8808E
:1011B0002046402100F08AF901281CBF0120A870B8
:1011C00004B0B0BD0A20FFF795FE0020C4F2020073
:1011D00000F58050042100F079F9002800F090809B
:1011E00040F2C800C2F200000121C17104B0B0BDDC
:1011F000B0F5804F40F0848040F2C804C2F2000491
:10120000E07A00287CD1617AE078012908BF0128C2
:101210001BD12079012803D14FF47A70FFF76AFEC1
:1012200040F6B010C2F20000016800224A6201F0EC
:101230002BF80020C4F2020000F50060102100220B
:1012400000F052F9E0780121E172A17A012957D129
:10125000217A012954D1012852D1A07801284FD1F7
:10126000207B40B940F68820C2F20000042101F042
:101270005DFC01202073E089A18A884240D20130C0
:10128000E08140F6B010C2F2000002680021A170B7
:10129000516200F0F9FF0020C4F2020000F5006086
:1012A00010210122012500F01FF9E57204B0B0BD44
:1012B000012825D02046202100F008F901281FD060
:1012C0002046202100F002F9012819D020462021D3
:1012D00004B0BDE8B04000F0F9B800BF20461021CE
:1012E00000F0F4F801280BD02046102100F0EEF8B1
:1012F000012805D02046102100F0E8F8012801D18E
:1013000004B0B0BD2046102104B0BDE8B04000F0EC
:10131000DDB8000043F61441C4F201010A6802423C
:1013200014BF08607047FFF799BE00002DE9F04F29
:1013300083B000F1200200F13E4741F600450092E3
:1013400007F1FF77C4F2020508224FEAB726A84248
:1013500008BF072200254FF000084FF00009072EB4
:1013600038BF4FEAB72201920AE000BF09F1010934
:1013700008F10208B9F1100F05F1040500F0A28090
:101380000F68012202FA09FE17EA0E0AEED0D1F820
:1013900004C003220CF003077E1E02FA08F4012E9B
:1013A0006FEA040B12D88468CE6804EA0B0406FACC
:1013B00008F634438460446824EA0E06CCF3001433
:1013C00004FA09F42643466004E000BF032F01D16C
:1013D00003271EE0C6688C6806EA0B0604FA08F4C8
:1013E0002643022FC66014D16FF00302009E02EA6A
:1013F000590756F807C005F01C040F220B69A240DC
:101400002CEA0202A3401A43F251D1F804C00CF0B6
:101410000307026807FA08F302EA0B021A431CF4F6
:10142000403F0260A2D0002243F644030292C4F27D
:1014300002031A6843F6004442F480421A601A68B4
:10144000C4F2010402F480420292029A29F00302DB
:101450004FF6084C2244CFF6FF7C52F80C3005F0D2
:101460000C070F26BE40B343019E06FA07F73B4325
:1014700042F80C30A2684B6842EA0A0743F60C4C6B
:10148000DE0258BF22EA0A07A760C4F2010CDCF8AA
:1014900000209E0242EA0A0758BF22EA0A07CCF857
:1014A000007062689E0342EA0A0758BF22EA0A07F0
:1014B00067602268DB0342EA0A0758BF22EA0A078C
:1014C000276053E703B0BDE8F08F000000690840D3
:1014D00018BF012070470000426902EA01039143EE
:1014E00041EA034181617047002A08BF0904816114
:1014F0007047000041F28C30C2F200000068704773
:10150000002804BF01207047B0B582B004460568CA
:1015100090F8D50328B9002084F8D403204600F0C1
:1015200035F80320B5F1A04F84F8D50304BF00209F
:10153000A071206803F080FE94E80F00257C0095E0
:1015400003F03EFD30B10120022184F8D51302B032
:10155000B0BD00BF2068012103F0E6FF30B10221D9
:10156000012084F8D51302B0B0BD00BF94E80F008D
:10157000257C009503F068FE012100281CBF022194
:10158000012084F8D51302B0B0BD0000B0B586B01C
:1015900000680024B0F1A04F0594CDE90344029403
:1015A000019401D006B0B0BD43F630050094C4F2FA
:1015B0000205286801A940F001002860286800F0B1
:1015C0000100009000984FF4C05001900220CDE936
:1015D0000204032004900A2005900020C4F20200B7
:1015E000FFF7A4FE686840F08000686000946869B6
:1015F00040F480406861686900F480400090009881
:1016000006B0B0BD40F2240041F28C31C2F20000BD
:10161000C2F2000100780A681044086070470000B8
:1016200080B543F60040C4F20200016841F4007145
:101630000160016841F480610160016841F48071DA
:101640000160032000F098F8002000F005F800F099
:1016500027F8002080BD000070B540F22406C2F2D9
:10166000000640F22C013278C2F200014FF47A7386
:101670000968B3FBF2F20446B1FBF2F1084600F050
:10168000BBFC0F2C4FF0010508D838B94FF0FF30E4
:1016900021460022002500F043F87460284670BD02
:1016A00080B582B0002043F640010190C4F20201EF
:1016B0004A6842F480424A604A6802F480420192D9
:1016C000019A00900868002240F080500860086885
:1016D000002100F0805000900098042000F020F8D5
:1016E000042000F00BF805200021002200F018F87B
:1016F000052002B0BDE88040AFF30080002848BF5D
:10170000704700F01F01012202FA01F11C2202EAD7
:10171000D0004EF20012CEF200028150704700005D
:1017200010B54EF60C5CCEF2000CDCF80030C3F3C2
:10173000022E8EF00704042C28BF0424BEF10303FC
:101740004FF0FF3E0EFA04F438BF0023A143994046
:101750000EFA03F39A43114300F00F0200F16043C5
:101760000901043A03F564436244002848BF02F1CA
:101770000C03197010BD00004EF60C51CEF20001A2
:101780000A684FF6FF031A4060F30A2242F08060B5
:1017900040F0FD700860704704F07CF8F0B581B04F
:1017A0000446006810F0050F2DD06827C4F24727C3
:1017B00043F670060020C4F202063860FFF79AFE76
:1017C000054600BF56F8700C000105D5FFF792FEE4
:1017D000401B0228F6D93FE0D4E90101090741EA9C
:1017E0008010706101203860FFF784FE054600BF5D
:1017F00056F8700C000105D4FFF77CFE401B022850
:10180000F6D929E0206880074FF0000058D543F64C
:101810007006C4F20206009056F8300C47F200073A
:1018200040F0805046F8300C56F8300CC4F20007F7
:1018300000F0805000900098386840F48070386064
:10184000FFF758FE054600BF3868C00508D4FFF70B
:1018500051FE401B0228F7D9032001B0F0BD00BFA4
:10186000306810F4407013D0E16801F44071884290
:101870000ED0306840F64061C4F24721012220F4C6
:1018800040700A6000220A6030603068C00719D1D9
:10189000E06856F8681C4FF6FF4300F4407221F4EC
:1018A000F811C0F6FF730340B2F5407F08BF19433B
:1018B00046F8681C31686FF31F3008433060002021
:1018C00001B0F0BDFFF716FE054641F2883700BFB4
:1018D00030688007DCD4FFF70DFE401BB8424FF0A4
:1018E0000300F5D9ECE70000002804BF0120704791
:1018F0002DE9F04143F60808C4F202080446D8F87E
:10190000F8030D4600F00700814207D988F8F85324
:10191000D8F8F80300F00700A84277D120688107C3
:1019200017D5410705D5D8F8001041F4E051C8F8A3
:101930000010010705D5D8F8001041F46041C8F83F
:101940000010D8F80010A26821F0F0011143C8F887
:101950000010C00740D1D8F8F80300F00700854216
:1019600007D288F8F853D8F8F80300F00700A84227
:101970004CD12068410707D5D8F80010E26821F45F
:10198000E0511143C8F80010000708D5D8F800004E
:10199000216920F4604040EAC100C8F8000000F06E
:1019A0007DF8D8F8001045F6AE72C1F30311C0F609
:1019B0000002515C40F22C0220FA01F140F22800B2
:1019C000C2F200000068C2F200021160FFF744FE9C
:1019D0000020BDE8F08100BF6068811E022907D2A7
:1019E00058F8081C89015CBF0120BDE8F08111E0B6
:1019F000012807D158F8081C89035CBF0120BDE805
:101A0000F08107E058F8081C890703D40120BDE8DD
:101A1000F08100BFD8F8001021F003010843C8F896
:101A20000000FFF767FD064641F28837D8F800004E
:101A3000616800F00C00B0EB810F8CD0FFF75AFD0D
:101A4000801BB842F2D90320BDE8F08140F22C009F
:101A500043F60801C2F20000C4F2020100680968FE
:101A600045F6BE72C1F38221C0F60002515CC84047
:101A70007047000040F22C0043F60801C2F200005B
:101A8000C4F202010068096845F6BE72C1F3423132
:101A9000C0F60002515CC8407047000010B543F624
:101AA0000404C4F202046168C1F3810142F20040FF
:101AB000C0F2F400DFE801F002040A0210BD00BF2A
:101AC00041F20020C0F27A0010BD00BF216801F091
:101AD0003F02216823684902C3F3881106D4A1FBA1
:101AE00000010023FEF7D6FB07E000BF41F2002013
:101AF000C0F27A004843B0FBF2F021680222C1F341
:101B0000014102EB4101B0FBF1F010BD002804BF20
:101B1000012070472DE9F04182B00446007843F679
:101B20000006C007C4F202060CD0B06800F00C003A
:101B3000042840F081803068800303D56068002865
:101B400000F06881207880071BD5B06810F00C0F7A
:101B500009D0B06800F00C00082840F08780706859
:101B6000400200F183803068800703D5E0680128D7
:101B700040F050813068216920F0F80040EAC1004F
:101B800030602078000713D4207840072AD4A56954
:101B9000002D00F03A81B06800F00C00082840F0F9
:101BA000A580012D40F00E81012002B0BDE8F0813A
:101BB0006069002800F082800020C4F247200121E3
:101BC000C0F8801EFFF796FC054600BF706F8007C7
:101BD000DAD4FFF78FFC401B0228F7D9032002B0AC
:101BE000BDE8F081306C5FEAC0080AD400200190A3
:101BF000306C40F080503064306C00F080500190C8
:101C0000019847F20007C4F200073868C00547D4BE
:101C1000386840F480703860FFF76CFC054600BF00
:101C20003868C0053CD4FFF765FC401B0228F7D993
:101C3000032002B0BDE8F081B06800F00C00082875
:101C400003D1706840023FF576AF61683068B1F546
:101C5000803F07D0B1F5A02F40F09A8040F480205B
:101C60003060306840F4803030609AE0E0680028EE
:101C700040F20000C4F247205CD001210160FFF770
:101C800039FC0546306880073FF574AFFFF732FC3A
:101C9000401B0228F6D9032002B0BDE8F08100BF46
:101CA000A168306F012905D0052955D140F0040005
:101CB0003067306F40F00100306756E00020C4F21A
:101CC00047200021C0F8801EFFF714FC054600BF26
:101CD000706F80077FF558AFFFF70CFC401B0228A0
:101CE000F6D9032002B0BDE8F08100BF0027C4F29E
:101CF000472700203866FFF7FDFB022D05460DD172
:101D00003068800140F18A80FFF7F4FB401B022815
:101D10004FF00300F4D902B0BDE8F08130688001D3
:101D200073D5FFF7E7FB401B02284FF00300F5D9FE
:101D3000F1E700BF00210160FFF7DCFB054600BFB3
:101D4000306880077FF51DAFFFF7D4FB401B0228EA
:101D50004FF00300F4D9DEE720F001003067306F68
:101D6000002920F0040030677AD0FFF7C3FB054656
:101D700041F28837306F800700F18480FFF7BAFBAB
:101D8000401BB842F6D9032002B0BDE8F08100BF85
:101D900020F4803030603068002920F480203060EA
:101DA0007AD0FFF7A7FB0546306880033FF5CAAE3F
:101DB000FFF7A0FB401B6428F6D9032002B0BDE862
:101DC000F08100BF7068E16900F480028A4221D18D
:101DD000216A00F03F028A421CD147F6C071626A54
:101DE0000140B1EB821F15D1A16A4FF6FF73C90301
:101DF000994300F44032A1F580318A420AD1E16A68
:101E000000F07060B0EB016F04D1002002B0BDE8BB
:101E1000F08100BF012002B0BDE8F08104F11C0593
:101E20002FCD084340EA8210D9034FF6FF72914349
:101E3000A1F5803140EA05600843706001203866F2
:101E4000FFF758FB044600BF30688001DDD4FFF780
:101E500051FB001B02284FF00300F5D95BE700BFE0
:101E6000FFF748FB054641F2883700BF306F800717
:101E700008D5FFF73FFB401BB8424FF00300F5D9F0
:101E800049E700BFB8F1000F3FF581AE306C20F09C
:101E9000805030647BE600BFFFF72CFB054600BF97
:101EA000306880037FF54EAEFFF724FB401B6428AB
:101EB0004FF00300F4D92EE7002804BF012070473B
:101EC000B0B50446407F20B900202077204600F0BE
:101ED00071F8022060772168C868C0065ED4CA2005
:101EE000486253204862C868400615D4C86840F06C
:101EF0008000C860FFF7FEFA2168CA6852060BD45A
:101F0000054600BFFFF7F6FA401BB0F57A7F49D8C7
:101F10002168C8684006F5D588684FF6BF72CFF6CD
:101F20008F7210408860D4E9010CD4E903356269EE
:101F300028438D681043284388600B61086940EA94
:101F40000C400861C86820F08000C860886880067E
:101F50001AD447F65F70C0F20100C860FFF7CAFAF2
:101F6000054600BF2168C86880060DD4FFF7C2FA95
:101F7000401BB0F57A7FF5D9042060772068FF21F7
:101F800041620120B0BD00BF086C20F480200864CD
:101F9000A0690A6C10430864FF2048620120607742
:101FA0000020B0BD042060772068C168FF21416235
:101FB0000120B0BD80B584B0006842F60002C4F2D2
:101FC0000002002190420291019101D004B080BD35
:101FD000022000904FF4007003906846FFF7DEFB8C
:101FE000002818BFFEF7F0FC40F63C60C4F2472022
:101FF0000121016004B080BD411E0020B0EB116FD3
:102000001CBF012070474EF21002CEF20002516058
:102010004EF62351CEF20001F0230B7007219060A1
:1020200011607047704700007047000090F83C2036
:10203000012A4FF0020254D010B580F83D2002680A
:10204000D2F804E0D2F808C00C682EF070032343E5
:1020500041F2FF74C4F20004A24253600EDC40F26D
:10206000FF73C4F200039A4216DCB2F1804F2BD00A
:1020700040F20043C4F2000324E000BF40F2FF330B
:10208000C4F201039A4213DC41F60003C4F20003D8
:102090009A4219D0002313E040F60003C4F2000373
:1020A0009A4211D040F60043C4F200030AE000BF98
:1020B00044F20003C4F201039A4205D040F2004307
:1020C000C4F201039A4204D149682CF080031943F9
:1020D00091600121002280F83D1080F83C20BDE88D
:1020E0001040104670470000002804BF01207047D0
:1020F00010B5044690F83D0028B9002084F83C0053
:10210000204600F01FF8022084F83D002068211DC1
:1021100002F026FB012084F8460084F83E0084F893
:102120003F0084F8400084F8410084F8420084F8BD
:10213000430084F8440084F8450084F83D00002002
:1021400010BD000080B582B0006840F6FF31C4F2D7
:102150000001884222DD40F60041C4F200018842BD
:1021600044D044F20001C4F20101884258D044F244
:102170000041C4F20101884236D10020019043F6AB
:102180004000C4F20200416841F4003141604068FF
:1021900000F400300190019826E000BF40F20041B9
:1021A000C4F20001884255D040F60001C4F200019B
:1021B000884219D10020019043F64000C4F2020089
:1021C0000168002241F0040101600068082100F06C
:1021D0000400019001981E20FFF7A2FA1E2002B011
:1021E000BDE88040FFF78ABA02B080BD00200190B0
:1021F00043F64000C4F202000168002241F00801E9
:1022000001600068002100F0080001900198322070
:10221000FFF786FA322002B0BDE88040FFF76EBAC1
:102220000020019043F64000C4F202004168002201
:1022300041F4803141604068002100F48030019019
:1022400001981820FFF76CFA182002B0BDE8804012
:10225000FFF754BA0020019043F64000C4F2020098
:102260000168002241F0020101600068082100F0CD
:102270000200019001981D20FFF752FA1D2002B0C4
:10228000BDE88040FFF73ABA90F83D1001291CBF25
:1022900001207047022180F83D10006841F2FF7272
:1022A000C168C4F20002904241F00101C1600DDC3E
:1022B00040F2FF71C4F20001884215DCB0F1804F9A
:1022C0002AD040F20041C4F2000123E040F2FF3185
:1022D000C4F20101884213DC41F60001C4F200019E
:1022E000884219D0002113E040F60001C4F2000139
:1022F000884211D040F60041C4F200010AE000BF5C
:1023000044F20001C4F20101884205D040F20041CC
:10231000C4F20101884206D1816801F00701062953
:1023200004BF00207047016841F0010101600020F6
:10233000704700000146006841F21113C26822F0A4
:102340000102C260026A1A4204D00122002081F810
:102350003D207047026A40F244431A42F5D10268B8
:1023600022F0010202600122002081F83D20704726
:1023700090F83C20012A4FF002026CD080B580F822
:102380003D20D0F800C04FF67772DCF8083023EA21
:102390000202CCF808200B684F2B29DC1F2B45DDEF
:1023A000202B46D0302B44D0402B40F0AF80D1F8CA
:1023B00004E0C968DCF82030DCF8202022F00102BB
:1023C000CCF82020DCF8182022F0F00242EA0111BB
:1023D00023F00A0242EA0E02CCF81810CCF82020B2
:1023E000DCF8081041F0470121F0300128E000BF7F
:1023F0006F2B33DDB3F5005F74D0B3F5805F21D070
:10240000702B40F08380D1E901E3C968DCF8082033
:1024100043EA0E0322F47F4243EA01211143CCF840
:102420000810DCF8081041F0770109E00BB1102B1F
:102430006CD1DCF8081021F07001194341F007015C
:10244000CCF808100022012180F83D10002180F80E
:102450003C10BDE880401046704700BF502B21D093
:10246000602B53D1D1F804E0C968DCF82030DCF8E7
:10247000202022F01002CCF82020DCF8182022F4D2
:10248000704242EA013123F0A00242EA0E12CCF877
:102490001810CCF82020DCF8081041F0670121F07A
:1024A0001001CDE7D1F804E0C968DCF82030DCF891
:1024B000202022F00102CCF82020DCF8182022F0A5
:1024C000F00242EA011123F00A0242EA0E02CCF8BD
:1024D0001810CCF82020DCF8081041F0570121F04A
:1024E0002001ADE7D1E901E3C968DCF8082043EA3F
:1024F0000E0322F47F4243EA01211143CCF8081075
:10250000DCF8081041F480419AE700BF01229AE705
:10251000002804BF012070472DE9F047044690F8D9
:102520003D000D4628B9002084F83C00204600F00C
:1025300049F8022084F83D00206844F207028168CF
:1025400091438160211D02F00BF920684FF6FF785E
:1025500081688269D0F820C0D5E9003ED5E9026AD9
:1025600043EA0109AB6922EA080246EA03234FF66F
:10257000FC46B343D5E9076742EA0A0229691A43D0
:1025800042EA062242EA01112CF0AA026B6942EAF1
:102590000E0241EA073142EA0312C0F80890816155
:1025A0000262012084F8460084F83E0084F83F006F
:1025B00084F8420084F8430084F83D000020BDE820
:1025C000F0870000F0B587B000680021B0F1804FBF
:1025D0000691CDE904110391029101D007B0F0BD3D
:1025E00043F630000191C4F202000269002442F077
:1025F000010202610269C4F2020402F001020192C6
:10260000019A0191026802AD42F001020260026883
:10261000022602F001020192019A0191016801274C
:1026200041F0020101600068294600F002000190BB
:1026300001984FF4004002902046CDE903660596CC
:102640000697FEF773FE0820CDE9020604F58060C8
:102650002946CDE904660697FEF768FE1C2008218E
:102660000022FFF75DF81C20FFF748F807B0F0BD27
:1026700080B590F83E2090F83F3090F842E090F816
:1026800043C004290AD0B9B9012A4FF0010208BF9A
:10269000BEF1010F34D0104680BD00BF012B4FF0BA
:1026A000010208BFBCF1010FF5D1022180F83F10F3
:1026B00080F8431000681EE0012A4FF0010208BFB5
:1026C000012BE8D1BEF1010FE5D1BCF1010FE2D140
:1026D000022280F83E2080F83F2080F8422080F8D7
:1026E000432091B10068016A21F001010162016A91
:1026F00041F00101016210216FF0100209E000BFFA
:10270000022180F83E1080F84210006801216FF02D
:102710000102036A1A400262026A114301620168FF
:10272000002241F001010160104680BD90F83C207C
:10273000012A4FF0020209D080F83D200268516161
:102740000121002280F83D1080F83C20104670479F
:102750007047000070B504460068C5680669B10797
:1027600016D515F0020113D06FF0020101610121AD
:1027700021778069800703D02046FFF7E9FF05E055
:10278000204600F08FF8204600F0CEF90020207798
:10279000700719D515F0040016D020686FF00401F9
:1027A000016102212177806910F4407F04D0204626
:1027B000FFF7CEFF06E000BF204600F073F820468A
:1027C00000F0B2F900202077300717D515F0080087
:1027D00014D020686FF00801016104212177C069DD
:1027E000800703D02046FFF7B3FF05E0204600F046
:1027F00059F8204600F098F900202077F00619D506
:1028000015F0100016D020686FF01001016108214A
:102810002177C06910F4407F04D02046FFF798FF6D
:1028200006E000BF204600F03DF8204600F07CF9AD
:1028300000202077F00718BF15F0010002D1300604
:1028400009D412E020686FF001010161204600F018
:102850004BFA300609D515F0800006D020686FF0DD
:10286000800101612046FFF7DDFB700609D515F0F8
:10287000400006D020686FF040010161204600F062
:10288000B1FAB00658BF70BD15F0200008D021681D
:102890006FF0200220460A61BDE87040FFF7C4BB1C
:1028A00070BD00007047000090F83C30012B04BF61
:1028B000022070474FEAB202032A00F2FF802DE99E
:1028C000F043DFE802F003B13F7F00BF036840F24E
:1028D00000461C6A1A6A24F0020422F001021A62FD
:1028E0001A46D3F804C052F818EF8F6843F4806595
:1028F000C4F20106B54244EA070405D1CF6824F0CA
:102900000C0427F004073C430F68B54206D1D1E917
:1029100005582CF440762E4346EA080C2EF0730638
:102920003743C3F804C09F614F6809695F631C6245
:102930009F6947F008079F619F6927F004079F611F
:10294000B1E000BF036840F200481C6A1A6A24F430
:10295000007422F480721A621A46D3F804C052F846
:102960001CEF8F6843F48065C4F20108454544EAD2
:10297000072408D1CF6840F2FF463F0224F44064A8
:1029800027EA06063443D1F80090454506D1D1E93F
:1029900005562CF440572E4347EA061C2EF07307C9
:1029A00047EA0907C3F804C0DF614F680969DF63BC
:1029B0001C62DF6947F00807DF61DF6927F0040761
:1029C000DF6170E0036840F20045D3F820C01A6A66
:1029D00043F4806722F480521A621A465C6852F807
:1029E0001C8FD1F800E08E68C4F20105AF4204D11B
:1029F0004D6924F4804444EA85142CF4005747EAD6
:102A0000063728F4E64646EA0E265C60DE614E682C
:102A100009691E641F62DF6947F40067DF61DF69CF
:102A200027F48067DF613DE0036840F200481C6ADC
:102A30001A6A24F0200422F010021A621A46D3F80F
:102A400004C052F818EF8F6843F48065C4F201089F
:102A5000454544EA071407D1CF686FF0400624F0DB
:102A6000C00406EA07163443D1F80090454506D164
:102A7000D1E905562CF440672E4347EA860C2EF424
:102A8000E64747EA0927C3F804C09F614F68096910
:102A90009F631C629F6947F400679F619F6927F4E9
:102AA00080679F6109021368194311600021BDE826
:102AB000F043002280F83C200846704701210022A4
:102AC00080F83C2008467047002804BF012070476A
:102AD00010B5044690F83D0028B9002084F83C0069
:102AE000204600F01FF8022084F83D002068211DD8
:102AF00001F036FE012084F8460084F83E0084F898
:102B00003F0084F8400084F8410084F8420084F8D3
:102B1000430084F8440084F8450084F83D00002018
:102B200010BD00007047000070470000C1B10429CB
:102B300008D0082914BF41224022825C012A05D016
:102B400016E000BF3F22825C012A11D1022208292F
:102B500010D0042914BF80F8412080F83F200BE0FA
:102B600090F83E20012A03D1022280F83E2003E0A3
:102B70000120704780F84020006801F01F01012209
:102B8000036A02FA01F123EA01020262026A1143B6
:102B900041F2FF72C4F20002904201620CDC40F28A
:102BA000FF71C4F20001884214DCB0F1804F37D0CD
:102BB00040F2004116E000BF40F2FF31C4F20101D3
:102BC000884215DC41F60001C4F20001884227D09A
:102BD000002115E040F60001C4F2000188421FD038
:102BE00040F60041C4F20001884219D01FE000BF46
:102BF00044F20001C4F20101884211D040F20041C8
:102C0000C4F20101884212D1416C40F2004340F409
:102C10008062C4F2010341F400419A42416406D14A
:102C2000816801F00701062904BF00207047016890
:102C300041F00101016000207047000010B50268FA
:102C400001F01F0E4FF0010C146A0CFA0EF324EA87
:102C50000303136240F20043D2F820C042F48064C0
:102C6000C4F201039C42C2F820C009D1136A41F2A8
:102C70001114234204D1136A40F2444423420FD07A
:102C8000136A41F21114234213D1136A40F24444EF
:102C900023420ED1136823F00103136009E000BF43
:102CA000536C23F400435364136A41F2111423421A
:102CB000EBD0082912D004290AD000294FF00101D5
:102CC00014BF80F8411080F83E10002010BD00BFF6
:102CD000012180F83F10002010BD00BF012180F8C5
:102CE0004010002010BD0000F0B583B041F2000498
:102CF0000546C4F202040068A4F5033140F2C80698
:102D00008842C2F2000611D1317903290ED0A4F510
:102D1000006010210122FEF7E7FB40F6B010C2F27E
:102D20000000FFF707FB0020F0722868A4F50231CD
:102D3000884207D02868A4F50131884241D003B009
:102D4000F0BD00BFF089B18AB0EB410F0ED2204632
:102D50004FF40041FEF7C0FBF0890130F081286894
:102D6000A4F501318842EAD12BE000BF40F6F8100B
:102D70000027C2F20000F781FFF7DCFA20460821A5
:102D80000122FEF7B1FB40F68820C2F200000421C8
:102D9000FFF754FFA4F5805080210122FEF7A4FB29
:102DA00040F200000E26C2F200000521032200239B
:102DB000CDE90076FDF77AFD2868A4F50131884257
:102DC000BDD140F20000C2F20000132700260E30F1
:102DD000052102220023CDE90067FDF767FD03B05E
:102DE000F0BD0000704700007047000010B50446B9
:102DF0000068416994F84120212A56D111F08001E0
:102E000053D000BF206850E8050F216820F08000F3
:102E100041E80502DAB1206850E8050F216820F08A
:102E2000800041E8050292B1206850E8050F216852
:102E300020F0800041E805024AB1206850E8050F03
:102E4000216820F0800041E80502002ADAD1A06B59
:102E5000002818BFFDF70EFE206850E8030F216818
:102E600020F0C00041E80302DAB1206850E8030F07
:102E7000216820F0C00041E8030292B1206850E8C8
:102E8000030F216820F0C00041E803024AB1206826
:102E900050E8030F216820F0C00041E80302002A37
:102EA000DAD1202084F841002068406994F842106B
:102EB000222940F0A78010F0400000F0A38000BF5E
:102EC000206850E8050F216820F0400041E8050225
:102ED000DAB1206850E8050F216820F0400041E891
:102EE000050292B1206850E8050F216820F04000EB
:102EF00041E805024AB1206850E8050F216820F03A
:102F0000400041E80502002ADAD1E06B002818BF32
:102F1000FDF7B0FD206850E8030F216820F49070A1
:102F200041E80302BAB3206850E8030F216820F497
:102F3000907041E8030272B3206850E8030F2168E3
:102F400020F4907041E803022AB3206850E8030F90
:102F5000216820F4907041E80302002ADAD11AE0D7
:102F6000206850E8050F216820F0010041E80502C3
:102F7000DAB1206850E8050F216820F0010041E82F
:102F8000050292B1206850E8050F216820F0010089
:102F900041E805024AB1206850E8050F216820F099
:102FA000010041E80502002ADAD1206B012824D172
:102FB000206850E8030F216820F0100041E8030268
:102FC000DAB1206850E8030F216820F0100041E8D2
:102FD000030292B1206850E8030F216820F010002E
:102FE00041E803024AB1206850E8030F216820F04D
:102FF000100041E80302002ADAD1202084F84200C0
:1030000000202063002010BD70470000B0B582B0E2
:1030100001680A68CC684B6902F02F05202D04F086
:10302000200505D125B102B0BDE8B04001F050BE89
:103030005FEA027C1EBF03F0010E04F4907313EBF1
:103040000E0341D1036BD50618D5012B16D114F010
:10305000100313D0002201920A6801924A6801927B
:10306000019A496949064BD4818DC28DC38D002BCD
:1030700018BF914240F0068202B0B0BD13062DD5B4
:1030800014F080032AD090F84120212AF4D18268DC
:10309000B2F5805F03D10269002A00F07982026AEA
:1030A000531C036212784A60C28C013A1304C28432
:1030B000E2D1C86820F08000C860C86840F04000D5
:1030C000C86002B0B0BD00BFD30718BF14F480734E
:1030D00040F0E280530700F1E580EAE05206CBD5EC
:1030E00014F04002C8D0CA6822F04002CA60202111
:1030F00080F8411002B0BDE8B04000F0F1BD00BF63
:10310000C26B11684B68858D99B2002900F0B480BC
:10311000A94280F0B180C385D169B1F5807F00F00C
:10312000A080016851E8031F026821F4807142E821
:103130000313DBB1016851E8031F026821F48071B9
:1031400042E8031393B1016851E8031F026821F4B8
:10315000807142E803134BB1016851E8031F026814
:1031600021F4807142E80313002BDAD1016851E8A1
:10317000051F026821F0010142E80513BBB3016895
:1031800051E8051F026821F0010142E8051373B3FD
:10319000016851E8051F026821F0010142E80513AA
:1031A0002BB3016851E8051F026821F0010142E8D4
:1031B0000513002BDAD11AE0016851E8051F0268F7
:1031C00021F0400142E80513DBB1016851E8051F19
:1031D000026821F0400142E8051393B1016851E80B
:1031E000051F026821F0400142E805134BB1016858
:1031F00051E8051F026821F0400142E80513002B49
:10320000DAD1202180F8421000210163016851E8E1
:10321000031F026821F0100142E80313DBB10168CB
:1032200051E8031F026821F0100142E8031393B133
:10323000016851E8031F026821F0100142E80313FE
:103240004BB1016851E8031F026821F0100142E808
:103250000313002BDAD1C16B04460846FDF70AFCC4
:10326000204602214163818DC28D891A89B202B044
:10327000BDE8B040FFF7B8BD8D427FF4FDAED26926
:10328000B2F5807F7FF4F8AE0222426302B0BDE85F
:10329000B040FFF7A9BD00BF436C43F00103436496
:1032A000530706D5BEF1000F03D0436C43F0020371
:1032B0004364930706D5BEF1000F03D0436C43F07F
:1032C00004034364BCF1000F06D55EEA050303D096
:1032D000436C43F008034364436C002B3FF4CCAED3
:1032E000920605D525B1044601F0F2FC216820467E
:1032F0004969426C01F0400102F00802891800F0AF
:10330000B98000BF016851E8031F026821F4907181
:1033100042E80313BBB3016851E8031F026821F4BC
:10332000907142E8031373B3016851E8031F026808
:1033300021F4907142E803132BB3016851E8031F95
:10334000026821F4907142E80313002BDAD11AE0ED
:10335000016851E8051F026821F0010142E80513E8
:10336000DBB1016851E8051F026821F0010142E864
:10337000051393B1016851E8051F026821F00101AE
:1033800042E805134BB1016851E8051F026821F0BE
:10339000010142E80513002BDAD1016B012924D188
:1033A000016851E8031F026821F0100142E803138D
:1033B000DBB1016851E8031F026821F0100142E807
:1033C000031393B1016851E8031F026821F0100153
:1033D00042E803134BB1016851E8031F026821F072
:1033E000100142E80313002BDAD1202180F84210AB
:1033F0000021016301684969490640F1C380016801
:1034000051E8051F026821F0400142E80513DBB1D5
:10341000016851E8051F026821F0400142E80513E8
:1034200093B1016851E8051F026821F0400142E8AC
:1034300005134BB1016851E8051F026821F04001F6
:1034400042E80513002BDAD1C16B002900F09A8005
:1034500044F61912C0F60002044608460A65FDF754
:1034600051FB00283FF408AEE06B016D02B0BDE8EF
:10347000B04008470446FFF7C7FD0020606402B073
:10348000B0BD00BF891A00BF026852E8032F03686D
:1034900022F4907243E80325BDB3026852E8032F7B
:1034A000036822F4907243E8032575B3026852E87A
:1034B000032F036822F4907243E803252DB30268BA
:1034C00052E8032F036822F4907243E80325002D8D
:1034D000DAD11AE0026852E8052F036822F00102EF
:1034E00043E80525DDB1026852E8052F036822F0A4
:1034F000010243E8052595B1026852E8052F0368EB
:1035000022F0010243E805254DB1026852E8052F7B
:10351000036822F0010243E80525002DDAD12022BC
:1035200080F8422000220263026852E8032F0368F9
:1035300022F0100243E80325DDB1026852E8032FB0
:10354000036822F0100243E8032595B1026852E8AF
:10355000032F036822F0100243E803254DB10268EF
:1035600052E8032F036822F0100243E80325002DE0
:10357000DAD1022289B2426302B0BDE8B040FFF75F
:1035800033BC00BF02B0BDE8B040FFF73DBD00BF97
:10359000026A32F8023B6FF35F234B60026283E5FD
:1035A000002804BF0120704710B5044690F8410080
:1035B00028B9002084F84000204600F021F824209B
:1035C00084F841002068C16821F40051C1602046A0
:1035D00001F0FEFB2068016921F49041016141691D
:1035E00021F02A014161C16841F40051C16000200D
:1035F0002021606484F8411084F84210606310BD9B
:103600002DE9F04F87B00446006844F60001C4F28B
:10361000000100268842CDE90566CDE903660296E1
:1036200000F0F48041F20001C4F20101884200F090
:10363000878045F20001C4F20001884240F05581C4
:1036400043F630000196C4F20200016940F20047DF
:1036500041F4801101610169C4F2020701F4801193
:10366000019101990196016802AD41F004010160E8
:10367000016846F2100801F00401019101990196D8
:1036800001684FF0020941F00801016000684FF045
:10369000030A00F00800019001984FF48050029056
:1036A0004FF0080B07F580602946C4F20208CDE907
:1036B0000396CDF814A0CDF818B0FDF737FE04201E
:1036C000CDE9020904A880E8400C07F5006029460E
:1036D000FDF72CFE40F2E025C2F200054FF0006736
:1036E0004FF480692846C5E90087C5E90266C5E947
:1036F0000496C5E90666C5E90866FDF7F7FA0028ED
:1037000018BFFDF761F9E563AC6340F2403508F19D
:10371000A800C2F200054021C5E9000705F1080034
:1037200080E842022846C5E90566C5E907666E627B
:10373000FDF7DCFA00284FF0350640F0CA80CAE0F9
:1037400043F630000196C4F20200416946F21008C7
:1037500041F0100141614169C4F2020801F0100119
:10376000019101990196016841F002010160006830
:1037700002A900F0020001900198C02002900220EE
:10378000CDE90306032005900720069040F2004093
:10379000C4F20200FDF7CAFD40F2A03508F58660CC
:1037A000C2F200054FF000674FF48069C5E90007D9
:1037B0002846C5E90266C5E90496C5E90666C5E975
:1037C0000866FDF793FA002818BFFDF7FDF8E563DA
:1037D000AC6340F2004508F59560C2F20005402157
:1037E000C5E9000705F1080080E842022846C5E95E
:1037F0000566C5E907666E62FDF778FA00284FF0A6
:10380000250618BFFDF7E0F865E000BF43F630007D
:103810000196C4F20200016946F2100841F48021C9
:1038200001610169C4F2020801F48021019101994A
:103830000196016841F002010160006802A900F0F0
:103840000200019001984FF4406002900220CDE9FF
:103850000306032005900720069040F20040C4F2C2
:103860000200FDF763FD40F2604508F11800C2F266
:1038700000054FF000674FF48069C5E9000728464E
:10388000C5E90266C5E90496C5E90666C5E90866A4
:10389000FDF72CFA002818BFFDF796F8E563AC6336
:1038A00040F2C04508F14800C2F200054021C5E9D8
:1038B000000705F10800002280E806022846C5E955
:1038C0000522C5E907226A62FDF710FA4FF02706C4
:1038D00008B1FDF779F830460C210022A563AC63EE
:1038E000FDF71EFF3046FDF709FF07B0BDE8F08F7A
:1038F00070B582B090F84250202D0BD113460A4685
:103900000146002A4FF0010018BF002B06D102B07B
:1039100070BD00BF022002B070BD00BF0026222093
:103920000E638A628B854E6481F842000C680D46F6
:10393000C86B44F6A12C44F60141C0F6000CC0F659
:103940000001C0E90FC144F62511C0F60001C0E92D
:103950001316211DFDF77CFA40B110206864202069
:1039600085F84200012002B070BD00BF01962868B2
:10397000294602680192406801900198286928B39D
:10398000086850E8030F0A6840F4807042E80303B7
:10399000E3B1086850E8030F0A6840F4807042E819
:1039A00003039BB1086850E8030F0A6840F4807075
:1039B00042E8030353B1086850E8030F0A6840F473
:1039C000807042E80303002BDAD100BF086850E89A
:1039D000050F0A6840F0010042E80503DBB3086800
:1039E00050E8050F0A6840F0010042E8050393B370
:1039F000086850E8050F0A6840F0010042E8050336
:103A00004BB3086850E8050F0A6840F0010042E82F
:103A10000503002BDAD11EE0086850E8050F0A689C
:103A200040F0400042E80503FBB1086850E8050F8C
:103A30000A6840F0400042E80503B3B1086850E866
:103A4000050F0A6840F0400042E80503002B4FF0E4
:103A500000003FF45CAF086850E8050F0A6840F0CA
:103A6000400042E80503002BD6D1002002B070BD13
:103A700070470000704700002DE9F04381B0044614
:103A800090F84100202809D100294FF0010018BF0B
:103A9000002A07D101B0BDE8F08300BF022001B0C9
:103AA000BDE8F0830020606421201D460E4684F8A6
:103AB00041001746FDF71EFDA784E784A1688146F3
:103AC000B1F5805F02D1206900285DD03746002023
:103AD000E28C2168002A5DD06A1C24D0002D4AD0D7
:103AE000804600BF0868000608D4FDF703FDA0EB80
:103AF0000900A8427AD82168C868F3E717B117F817
:103B0000010B04E038F8020B00276FF35F204860D8
:103B1000E08C0138E084E08C0028E3D13AE000BF7B
:103B20000A68120609D40A68120606D40A68120640
:103B30005CBF0A685FEA0262F2D51FB117F8012B79
:103B400005E000BF30F8022B00276FF35F224A60C8
:103B5000E28C013AE284E28C002AE4D11AE000BF50
:103B600030F8022B00276FF35F224A60E28C013AA3
:103B7000E284E28C72B10A68120635D5002FEFD0CC
:103B800017F8012BF1E700BF00273046E28C2168CF
:103B9000002AA1D1086840061ED42DB3681C14D198
:103BA000086840062AD40868400627D408684006FA
:103BB00024D4086840064FF00000F1D50DE000BFA6
:103BC0002068C1680068400618D4FDF793FCA0EB9C
:103BD0000900A842F4D909E00020202184F841100E
:103BE00001B0BDE8F08300BFFDF784FC0320202175
:103BF00084F8411001B0BDE8F08300BF002020210F
:103C000084F8411001B0BDE8F0830000B0B590F831
:103C10004140202C1CBF0220B0BD134602460029A3
:103C20004FF0010018BF002B00D1B0BD4FF0000CC9
:103C3000212011629384D384C2F844C082F84100E9
:103C400014681546906B44F6194E44F6C942C0F606
:103C5000000EC0F60002C0E90FE244F62512C0F6DD
:103C60000002C0E9132C221DFDF7F2F830B110203C
:103C70006864202085F841000120B0BD28682946ED
:103C80006FF04002026000BF086850E8050F0A6844
:103C900040F0800042E8050303B3086850E8050FD0
:103CA0000A6840F0800042E80503BBB1086850E8AC
:103CB000050F0A6840F0800042E8050373B1086808
:103CC00050E8050F0A6840F0800042E80503002B29
:103CD0004FF0000008BFB0BDD6E700BF0020B0BD68
:103CE0007047000070470000FEE7000080B582B01A
:103CF000002043F630010190C4F202010A6842F448
:103D000000120A600A6802F400120192019A0090FF
:103D10000868002240F48000086008680A2100F466
:103D20008000009000980B20FDF7FAFC0B20FDF7B7
:103D3000E5FC0C200A210022FDF7F2FC0C20FDF727
:103D4000DDFC0E200A210022FDF7EAFC0E20FDF723
:103D5000D5FC2F200A210022FDF7E2FC2F20FDF7E1
:103D6000CDFC3A200A210022FDF7DAFC3A20FDF7CB
:103D7000C5FC46200A210022FDF7D2FC462002B0F5
:103D8000BDE88040FDF7BABC2DE9F04F87B00025B3
:103D900043F630000695CDE90455CDE9025501956D
:103DA000C4F20200016840F6000941F01001016010
:103DB0000168C4F2020901F0100101910199019515
:103DC000016809F5006441F0040101600168002206
:103DD00001F00401019101990195016841F0800110
:103DE0000160016801F0800101910199019501686C
:103DF00041F001010160016801F0010101910199A7
:103E00000195016841F002010160016801F00201C1
:103E1000019101990195016841F008010160006874
:103E200048F2080100F00800019001982046FDF7D3
:103E30005BFB484644F20F110022FDF755FBA9F544
:103E400000663046802101224FF0010BFDF74CFB4C
:103E5000484610210122FDF747FB09F5806A5046CC
:103E60004FF4C0610022FDF73FFBA9F58068404692
:103E700010210122FDF738FB404620210022FDF7EA
:103E800033FB42F2040002904FF4881002AFCDE9F8
:103E9000030520463946FDF749FA48F20800CDE906
:103EA000020B20463946CDE90455FDF73FFA20467E
:103EB0004FF400410122FDF717FB44F2400002904D
:103EC0004FF40410CDE9030520463946FDF72EFADC
:103ED0004FF40050CDE90205484639460495FDF7F8
:103EE00025FA44F21F10CDE9020B48463946CDE9C8
:103EF0000455FDF71BFA302002904FF44410CDE931
:103F0000030530463946FDF711FA4020CDE9020598
:103F1000304639460495FDF709FA8020CDE9020BB9
:103F200030463946CDE90455FDF700FA4FF4C0603C
:103F3000CDE9020B50463946CDE90455FDF7F6F9B7
:103F40004FF44840CDE90205504639460495FDF747
:103F5000EDF94FF4406002900820022603240690F9
:103F600048463946CDE903650594FDF7DFF9602041
:103F7000CDE902060720069050463946CDE90454A3
:103F8000FDF7D4F93020CDE9020B40463946CDE9A2
:103F90000455FDF7CBF9082002210022FDF7C0FBF4
:103FA0000820FDF7ABFB0A2002210022FDF7B8FB39
:103FB0000A20FDF7A3FB172003210022FDF7B0FB29
:103FC0001720FDF79BFB282003210022FDF7A8FB0B
:103FD0002820FDF793FB07B0BDE8F08F80B540F6D1
:103FE000001042F60001C2F20000C4F200010022FB
:103FF0007F234FF0FF0C80E80E10C0E9042282619D
:10400000FDF75AFF002808BF80BDBDE88040FCF7DF
:10401000DBBC000080B540F6201044F20041C2F243
:104020000000C4F2010100224FF6FF73C0E9001244
:10403000C0E9022302618261FEF756F8002808BF3A
:1040400080BDBDE88040FCF7BFBC000080B58CB0EF
:1040500040F668100021C2F200004FF08042C0E933
:1040600000218022826103224FF0FF33CDE903213A
:104070000122CDE90011C0E902130161CDE905215A
:10408000CDE90711CDE909210B9103A9FEF740FA0B
:10409000002818BFFCF798FC40F66810C2F2000038
:1040A0006946FDF7C3FF002818BFFCF78DFC0CB074
:1040B00080BD000080B586B040F6B0100021C2F28D
:1040C000000040F2004242F20F7C0591CDE903115D
:1040D000CDE90011C4F2000241F61F43C0E9021C01
:1040E00001618021C0E900238161FDF7FDFF002807
:1040F00018BFFCF769FC4FF48050029040F6B010F6
:10410000C2F2000002A9FEF733F9002818BFFCF73D
:104110005BFC40F6B010C2F200006946FDF786FF76
:10412000002818BFFCF750FC06B080BD80B586B0F3
:1041300040F6F8100021C2F2000040F6000240F202
:10414000E73C0591CDE90311CDE90011C4F200026D
:1041500041F61F43C0E9021C01618021C0E9002330
:104160008161FDF7C1FF002818BFFCF72DFC4FF45B
:104170008050029040F6F810C2F2000002A9FEF74B
:10418000F7F8002818BFFCF71FFC40F6F810C2F241
:1041900000006946FDF74AFF002818BFFCF714FC31
:1041A00006B080BD80B586B040F6402040F60042A3
:1041B00048F29F6C0021C2F20000C4F200024723C3
:1041C000C0F2010C0591CDE90311CDE90011C0E960
:1041D0000023C0E9021C01618161FDF785FF002811
:1041E00018BFFCF7F1FB4FF48050029040F64020DE
:1041F000C2F2000002A9FEF7BBF8002818BFFCF7C6
:10420000E3FB40F64020C2F200006946FDF70EFFD6
:10421000002818BFFCF7D8FB06B080BD70B592B07F
:1042200044F2000540F68820C4F201050021C2F2E4
:1042300000001A2240F2E7330B91CDE909110791F2
:10424000CDE90511CDE90311CDE90111C0E9005215
:10425000C0E9021301618161FDF746FF002818BF24
:10426000FCF7B2FB4FF48050089040F68820C2F271
:10427000000008A9FEF77CF8002818BFFCF7A4FB93
:1042800040F68820C2F20000FEF71EFC002818BF8E
:10429000FCF79AFB602040F6882401904FF4FA70F6
:1042A000C2F200040290002601A9204604220396CF
:1042B0000596FEF7F9FA002818BFFCF785FB206881
:1042C0001196A842CDE90F660E960D9602D012B057
:1042D00070BD00BF002043F630010C90C4F2020113
:1042E0000A6842F001020A60096801F001010C91BC
:1042F0000C9908210D910221CDE90E101090032098
:10430000119005F540400DA9FDF710F812B070BDF1
:1043100080B540F6603045F20001C2F20000C4F200
:10432000000100234FF00C0C4FF4E13280E80E0046
:10433000C0E90333C0E905C3C361FFF731F90028C1
:1043400008BF80BDBDE88040FCF73EBB10B540F61D
:10435000D02041F2000CC2F20000C4F2010C4FF474
:10436000E1324FF4805300214FF4806E0C24C0E9F9
:1043700000C2C0E90231C0E904E4C0E90611FFF758
:104380000FF9002808BF10BDBDE81040FCF71CBBAA
:1043900010B540F6183044F6000CC2F20000C4F22A
:1043A000000C4FF4E1324FF4805300214FF4806E43
:1043B0000C24C0E900C2C0E90231C0E904E4C0E94C
:1043C0000611FFF7EDF8002808BF10BDBDE810404A
:1043D000FCF7FABA80B540F22050C2F200004FF06C
:1043E000A04101600821A0F805100121C17102213E
:1043F000A0F80910FDF784F8002808BF80BDBDE8CB
:104400008040FCF7E1BA0000FEE70000FEE7000094
:104410007047000070470000704700002DE9F0472A
:1044200090F800E04FF6FF748EEA04054AF20104AA
:1044300084EA5506EA07B0F802A08388477808BFE7
:104440006E0884EA5602F50708BF720884EA52052E
:10445000D60708BF550884EA5502EE0708BF6A0868
:1044600084EA5205D60708BF550884EA5502EE07CC
:1044700008BF6A0884EA5205D60708BF550884EACF
:104480005502EE0708BF6A087A4084EA5205D6074B
:1044900008BF550884EA5502EE0708BF6A0884EA97
:1044A0005205D60708BF550884EA5502EE0708BF33
:1044B0006A0884EA5205D60708BF550884EA5502FF
:1044C000EE0708BF6A0884EA5205D60708BF5508F8
:1044D00084EA5502EE0708BF6A0882EA1A2284EAD3
:1044E0005205D60708BF550884EA5502EE0708BFF3
:1044F0006A0884EA5205D60708BF550884EA5502BF
:10450000EE0708BF6A0884EA5205D60708BF5508B7
:1045100084EA5502EE0708BF6A0884EA5205D60706
:1045200008BF550884EA55025FFA8AF9EE0708BF0A
:104530006A0882EA090284EA5205D60708BF5508CC
:1045400084EA5502EE0708BF6A0884EA5205D607D6
:1045500008BF550884EA5502EE0708BF6A0884EAD6
:104560005205D60708BF550884EA5502EE0708BF72
:104570006A0884EA5205D60708BF550884EA55023E
:10458000EE0708BF6A0882EA132284EA5205D607BA
:1045900008BF550884EA5502EE0708BF6A0884EA96
:1045A0005205D60708BF550884EA5502EE0708BF32
:1045B0006A0884EA5205D60708BF550884EA5502FE
:1045C000EE0708BF6A0884EA5205D60708BF5508F7
:1045D00084EA55025FFA83F8EE0708BF6A0882EAA8
:1045E000080284EA5205D60708BF550884EA550236
:1045F000EE0708BF6A0884EA5205D60708BF5508C7
:1046000084EA5502EE0708BF6A0884EA5205D60715
:1046100008BF550884EA5502EE0708BF6A0884EA15
:104620005205D60708BF550884EA5502EC0708BFB3
:104630006A088271120AC27181F800E042784FEA7A
:104640001A2C1F0A4A7081F802C081F803A00F716A
:104650004B7182798A71C079C871BDE8F08700001A
:10466000FCF7D0BF70B592B006AC20463021FBF706
:1046700089FE002543F640000595CDE90355CDE9B7
:1046800001550095C4F202000168022641F08051F4
:104690000160006800F080500090009847F2000030
:1046A0000095C4F20000016841F480410160006897
:1046B00000F4804000900098092006904FF480306C
:1046C000079001200B904FF480000D9004200E9075
:1046D0004820CDE90F060320119020460C96FDF7E7
:1046E00015FA18B172B600BFFEE700BF0F20CDE982
:1046F00001064FF48050CDE9040501A8022103957D
:10470000FDF7F2F810B172B6FEE700BF12B070BD4F
:104710004EF68850CEF20000016841F4700101604D
:104720007047000040F68820C2F20000FEF712B881
:1047300040F66810C2F20000FEF70CB840F6B01068
:10474000C2F20000FEF706B840F6F810C2F2000010
:10475000FEF700B840F64020C2F20000FDF7FABFB5
:10476000B0B540F6FF3E0568C4F2000E40F2004CC2
:104770007045C4F2010C25DCB0F1804F2FD040F21F
:104780000043C4F20003984229D040F60003C4F26B
:104790000003984223D041F6FF73C4F2000398420D
:1047A00028DC70453ADCB0F1804F5BD040F200432A
:1047B000C4F20003984255D040F60003C4F200034F
:1047C0004EE000BF40F60043C4F20003984206D01A
:1047D000604504D00023C4F201039842DBD14B684A
:1047E00025F0700243EA020541F6FF73C4F20003AC
:1047F0009842D6DD43F6FF73C4F2010398421FDCF2
:1048000042F20003C4F2000398422BD00023C4F20A
:104810000103984226D0604524D028E040F60043AA
:10482000C4F2000398421DD041F60003C4F2000315
:10483000984217D041F60043C4F2000310E000BFD5
:1048400044F20003C4F2010398420BD044F6000383
:10485000C4F20103984205D044F20043C4F20103BC
:10486000984204D1CB6825F4407243EA02050A68F5
:104870008C684B69C46240F480648262644504BF02
:1048800009690163026825F0800142F004021943BE
:104890000260012242610160B0BD000040F660305C
:1048A000C2F2000000680168C9062ED510B582B0BA
:1048B00000210191016840F6603401914068C2F224
:1048C0000004019001982046FEF790FA40F2E020A3
:1048D000C2F20000006840F2DA014068C2F2000152
:1048E000C0F5FA70088040F2C800C2F20000012151
:1048F000017041F29611C2F2000120464FF4FA72A3
:10490000FEF7F6FF02B0BDE8104040F66030C2F29C
:104910000000FEF77BBB0000806B0021C185FEF725
:1049200073BB0000806B01684A6990F84130212B0D
:104930002DD112F080022AD00021C184016851E8F3
:10494000031F026821F0C00142E80313DBB10168D4
:1049500051E8031F026821F0C00142E8031393B13C
:10496000016851E8031F026821F0C00142E8031307
:104970004BB1016851E8031F026821F0C00142E811
:104980000313002BDAD1202180F841100168496916
:1049900090F84220222A40F07D8011F0400179D029
:1049A0000021C185016851E8031F026821F490715C
:1049B00042E80313BBB3016851E8031F026821F406
:1049C000907142E8031373B3016851E8031F026852
:1049D00021F4907142E803132BB3016851E8031FDF
:1049E000026821F4907142E80313002BDAD11AE037
:1049F000016851E8051F026821F0010142E8051332
:104A0000DBB1016851E8051F026821F0010142E8AD
:104A1000051393B1016851E8051F026821F00101F7
:104A200042E805134BB1016851E8051F026821F007
:104A3000010142E80513002BDAD1016B012924D1D1
:104A4000016851E8031F026821F0100142E80313D6
:104A5000DBB1016851E8031F026821F0100142E850
:104A6000031393B1016851E8031F026821F010019C
:104A700042E803134BB1016851E8031F026821F0BB
:104A8000100142E80313002BDAD1202180F84210F4
:104A900000210163416C41F010014164FEF7B4BA9A
:104AA0000168806B0968C90500F19F800021C185FC
:104AB000016851E8031F026821F4807142E8031382
:104AC000E3B1016851E8031F026821F4807142E8F4
:104AD00003139BB1016851E8031F026821F4807140
:104AE00042E8031353B1016851E8031F026821F43F
:104AF000807142E80313002BDAD100BF016851E84E
:104B0000051F026821F0010142E80513BBB30168EB
:104B100051E8051F026821F0010142E8051373B353
:104B2000016851E8051F026821F0010142E8051300
:104B30002BB3016851E8051F026821F0010142E82A
:104B40000513002BDAD11AE0016851E8051F02684D
:104B500021F0400142E80513DBB1016851E8051F6F
:104B6000026821F0400142E8051393B1016851E861
:104B7000051F026821F0400142E805134BB10168AE
:104B800051E8051F026821F0400142E80513002B9F
:104B9000DAD1202180F84210016B012925D100BF14
:104BA000016851E8031F026821F0100142E8031375
:104BB000DBB1016851E8031F026821F0100142E8EF
:104BC000031393B1016851E8031F026821F010013B
:104BD00042E803134BB1016851E8031F026821F05A
:104BE000100142E80313002BDAD100214163016B6D
:104BF000012918BFFEF73CBF818DFEF7F5B8000014
:104C0000806B01214163016B012918BFFEF732BFA0
:104C1000818D4908FEF7E8B80168806B0968C9050D
:104C200048BFFFF75DB80021C18400BF016851E8AB
:104C3000051F026821F0800142E8051383B3016873
:104C400051E8051F026821F0800142E805133BB3DB
:104C5000016851E8051F026821F0800142E8051350
:104C6000F3B1016851E8051F026821F0800142E8B4
:104C70000513002BDAD113E0016851E8031F026825
:104C800041F0400142E80313002B08BF7047016860
:104C900051E8031F026841F0400142E8031393B159
:104CA000016851E8031F026841F0400142E8031324
:104CB0004BB1016851E8031F026841F0400142E82E
:104CC0000313002BD8D17047806BFFF70BB800009F
:104CD00081B090F84210222921D183680246B3F5B1
:104CE000805F09D152F8281F52F8183C002B63D07E
:104CF00003685B680AE000BF52F8281F13B9036914
:104D0000002BF5D003685B6803F07F030B7011681C
:104D100001311160C18D01390A04C18502D001B091
:104D2000704700BF0168CA6822F02002CA60CA68E2
:104D300022F48072CA604A6922F001024A6120218D
:104D400080F8421000214163026B012A3CD10163CB
:104D5000016851E8031F026821F0100142E80313C3
:104D6000DBB1016851E8031F026821F0100142E83D
:104D7000031393B1016851E8031F026821F0100189
:104D800042E803134BB1016851E8031F026821F0A8
:104D9000100142E80313002BDAD101680A68D20639
:104DA00006D5002200920A68009249680091009995
:104DB000818D01B0FEF718B8026852686FF35F2268
:104DC00021F8022B8162A5E701B0FEF751BE000079
:104DD000B0B50446006804F108030ECB0569194319
:104DE00025F440552A4302616269E3691143C268B0
:104DF000194349F20C639A431143C1604169A269A6
:104E000021F4407141F20043114340F48062C4F246
:104E100001039A42416103D1FCF72CFE02E000BF7E
:104E2000FCF714FEE1694FF69C7563681922C0F621
:104E3000FF75B1F5004FA0FB02011FD15A00DB0F37
:104E4000FBF728FA48F21F51C5F2EB11A0FB012332
:104E50005A0905F1805302FB0300322303EBC00023
:104E6000A0FB01014FF4F87000EA111000EB0210F2
:104E7000C1F34211084421688860B0BD9A009B0FBD
:104E8000FBF708FA48F21F51C5F2EB11A0FB012312
:104E90005A0902FB0500322303EB0010A0FB0101BD
:104EA000F02000EA511000EB0210C1F34311084456
:104EB00021688860B0BD000040F6D020C2F200003A
:104EC00000680168C90637D5B0B582B000210191EC
:104ED000016840F6D02401914068C2F200040190BC
:104EE00001982046FDF782FF40F2A030C2F2000098
:104EF000006840F6A0714068C2F20001C0F5FA7087
:104F000040F6AA55088082B240F61830C2F2000579
:104F1000C2F200002946FEF779FE40F69E70C2F20A
:104F2000000001210170204629464FF4FA72FEF775
:104F3000DFFC02B0BDE8B04040F6D020C2F2000075
:104F4000FEF764B840F61830C2F20000006801684D
:104F5000C9062ED510B582B000210191016840F636
:104F6000183401914068C2F2000401900198204673
:104F7000FDF73CFF40F26040C2F20000006840F2E2
:104F8000D8014068C2F20001C0F5FA70088040F212
:104F9000C900C2F200000121017040F6A271C2F204
:104FA000000120464FF4FA72FEF7A2FC02B0BDE801
:104FB000104040F61830C2F20000FEF727B800009B
:104FC00082B002F47F42B2F5807F40F09980826B1C
:104FD0004FF6BF7322F480328263C268CFF6BD738E
:104FE0001A40C260029BC268DBB222F44012012B5D
:104FF000C26003D1C26842F48012C26000220092F3
:10500000009A01320092009AB2F1706F00F2F080C3
:105010000269002A21D4009A01320092009AB2F16A
:10502000706F00F2E5800269002A16D4009A0132FE
:105030000092009AB2F1706F00F2DA800269002AE1
:105040000BD4009A01320092009AB2F1706F00F214
:10505000CF800269B2F1FF3FD2DC0A220092009AAF
:10506000AAB100BF009A013A0092009A7AB1009A60
:10507000013A0092009A52B1009A013A0092009AC5
:105080002AB1009A013A0092009A002AEAD10269F4
:1050900042F001020261009A01320092009AB2F1DC
:1050A000706F00F2A5800269D20720D0009A013209
:1050B0000092009AB2F1706F00F29A800269D207F2
:1050C00015D0009A01320092009AB2F1706F00F28E
:1050D0008F800269D2070AD0009A01320092009AAA
:1050E000B2F1706F00F284800269D207D3D14FF021
:1050F000000C01F47F01B1F5803F40F099808FE012
:10510000C26842F04002C26000220192019A01325C
:105110000192019AB2F1706F72D80269002A1ED40E
:10512000019A01320192019AB2F1706F68D8026956
:10513000002A14D4019A01320192019AB2F1706FDF
:105140005ED80269002A0AD4019A01320192019ABA
:10515000B2F1706F54D80269B2F1FF3FD6DC0A2277
:105160000192019AAAB100BF019A013A0192019AF3
:105170007AB1019A013A0192019A52B1019A013A27
:105180000192019A2AB1019A013A0192019A002AE8
:10519000EAD1026942F001020261019A01320192F0
:1051A000019AB2F1706F2BD80269D2071DD0019A13
:1051B00001320192019AB2F1706F21D80269D207CF
:1051C00013D0019A01320192019AB2F1706F17D88F
:1051D0000269D20709D0019A01320192019AB2F113
:1051E000706F0DD80269D207D7D14FF0000C09E0DB
:1051F0004FF0030C01F47F01B1F5803F18D10FE0AF
:105200004FF0030C826B13F47F4F14BF22F48032F3
:1052100042F48032826301F47F01B1F5803F07D10F
:10522000816841F006018160816841F02001816060
:10523000604602B0704700000146806820F001021D
:1052400000208A607047000070B582B0864600205A
:10525000CEF8000EDEF8380040F40010CEF838002A
:10526000DEF8380020F40020CEF83800DEF83800F0
:1052700020F48020CEF83800DEF80C00400609D477
:1052800001F07F42DEF80004B2F1807F04D140F0EB
:10529000040003E0DEF8000420F00400CEF800046F
:1052A0000B0A002000900098013000900098B0F1A7
:1052B000706F59D8DEF81000002821D40098013012
:1052C00000900098B0F1706F4ED8DEF81000002802
:1052D00016D40098013000900098B0F1706F43D858
:1052E000DEF8100000280BD40098013000900098E0
:1052F000B0F1706F38D8DEF81000B0F1FF3FD2DCAB
:10530000002000904FF48460CEF810000098013027
:1053100000900098B0F1706F26D8DEF8100080067B
:1053200020D50098013000900098B0F1706F1BD824
:10533000DEF81000800615D5009801300090009826
:10534000B0F1706F10D8DEF8100080060AD5009812
:10535000013000900098B0F1706F05D8DEF81000B1
:105360008006D3D4002000E0012000220192019A9F
:1053700001320192019AB2F1706F57D8DEF8102015
:10538000002A21D4019A01320192019AB2F1706F80
:105390004CD8DEF81020002A16D4019A013201926E
:1053A000019AB2F1706F41D8DEF81020002A0BD4B8
:1053B000019A01320192019AB2F1706F36D8DEF88B
:1053C0001020B2F1FF3FD2DC002201921022CEF871
:1053D0001020019A01320192019AB2F1706F25D822
:1053E000DEF81020D20626D5019A01320192019AE8
:1053F000B2F1706F1AD8DEF81020D2061BD5019AD0
:1054000001320192019AB2F1706F13D8DEF81020C8
:10541000D20610D5019A01320192019AB2F1706F51
:1054200004D8DEF81020D206D3D404E00120DCB288
:105430001CB93BE00120DCB2C4B303F0030C002331
:10544000042C4FF0000218D3A4EB0C040EF5AC654D
:105450004FF0FF36043245F8586C45F8543C45F897
:10546000386C45F8343C45F8186C45F8143CAE608F
:10547000EB60944205F18005ECD1BCF1000F15D032
:105480000EF5A06303EB42124FF0FF340023BCF192
:10549000010F9460D36009D0BCF1020F9462D36213
:1054A00004D04FF0FF3393640023D3640022C4F28E
:1054B00004020023CEF818304FF0FF339645CEF8A3
:1054C00014301FD08022CEF824208022C0F2600247
:1054D000CEF82820E022C0F24002CEF8002111F4DC
:1054E0007F0F05D1DEF8181041F01001CEF818102A
:1054F000DEF818100822CAF220321143CEF8181034
:1055000002B070BD4FF40073536240F20023C0F24A
:105510000013936240F20033C0F2E003C2F800319E
:1055200011F47F0FE4D1DDE7B0B50446C06800296F
:1055300020F0C040E06000F09980012940F0B08088
:10554000E0680A2540F00050E0600A20FBF7D2FC3A
:1055500054F8140FC00740F09C800A20FBF7CAFCE7
:105560002068C00740F09E800A20FBF7C3FC20683B
:10557000C00740F0A5800A20FBF7BCFC2068C007EC
:1055800040F0AC800A20FBF7B5FC2068C00740F073
:10559000B3800A20FBF7AEFC2068C00740F0BA8059
:1055A0000A20FBF7A7FC2068C00740F0C1800A2052
:1055B000FBF7A0FC2068C00740F0C8800A20FBF77A
:1055C00099FC2068C00740F0CF800A20FBF792FCCE
:1055D0002068C00740F0D6800A20FBF78BFC2068CB
:1055E000C00740F0DD800A20FBF784FC2068C0077C
:1055F00040F0E4800A20FBF77DFC2068C00740F003
:10560000EB800A20FBF776FC2068C00740F0F280B0
:105610000A20FBF76FFC2068C00740F0F9800A20E1
:10562000FBF768FC2068C00740F000810A20FBF708
:1056300061FC2068C00740F007810A20FBF75AFC94
:105640002068C00740F00E810A20FBF753FC206859
:10565000C00740F016810A20FBF74CFC2068C825E3
:10566000A5F1C800B0FA80F04009B0BDE0680A2595
:1056700040F08040E0600A20FBF73CFC54F8140F37
:10568000C00706D00A20FBF735FC2068C00711D1FF
:105690001425A5F1C800B0FA80F04009B0BD00BFE4
:1056A0000120B0BD1425A5F1C800B0FA80F0400972
:1056B000B0BD00BF0A20FBF71DFC2068C00707D162
:1056C0001E25A5F1C800B0FA80F04009B0BD00BFAA
:1056D0000A20FBF70FFC2068C00707D12825A5F199
:1056E000C800B0FA80F04009B0BD00BF0A20FBF747
:1056F00001FC2068C00707D13225A5F1C800B0FA27
:1057000080F04009B0BD00BF0A20FBF7F3FB206822
:10571000C00707D13C25A5F1C800B0FA80F04009C8
:10572000B0BD00BF0A20FBF7E5FB2068C00707D12A
:105730004625A5F1C800B0FA80F04009B0BD00BF11
:105740000A20FBF7D7FB2068C00707D15025A5F139
:10575000C800B0FA80F04009B0BD00BF0A20FBF7D6
:10576000C9FB2068C00707D15A25A5F1C800B0FAC7
:1057700080F04009B0BD00BF0A20FBF7BBFB2068EA
:10578000C00707D16425A5F1C800B0FA80F0400930
:10579000B0BD00BF0A20FBF7ADFB2068C00707D1F2
:1057A0006E25A5F1C800B0FA80F04009B0BD00BF79
:1057B0000A20FBF79FFB2068C00707D17825A5F1D9
:1057C000C800B0FA80F04009B0BD00BF0A20FBF766
:1057D00091FB2068C00707D18225A5F1C800B0FA67
:1057E00080F04009B0BD00BF0A20FBF783FB2068B2
:1057F000C00707D18C25A5F1C800B0FA80F0400998
:10580000B0BD00BF0A20FBF775FB2068C00707D1B9
:105810009625A5F1C800B0FA80F04009B0BD00BFE0
:105820000A20FBF767FB2068C00707D1A025A5F178
:10583000C800B0FA80F04009B0BD00BF0A20FBF7F5
:1058400059FB2068C00707D1AA25A5F1C800B0FA06
:1058500080F04009B0BD00BF0A20FBF74BFB206879
:10586000C00707D1B425A5F1C800B0FA80F04009FF
:10587000B0BD00BF0A20FBF73DFB2068C0077FF4E6
:10588000EAAEBE25A5F1C800B0FA80F04009B0BD6F
:10589000FEE700004EF60C50BFF34F8FCEF2000033
:1058A0000168042201F4E061C0F2FA521143016080
:1058B000BFF34F8F00BF00BF00BF00BFFAE700007B
:1058C0002DE9F04F0329A1F1020E0FD3CA1E45F6B0
:1058D000C87A0EF0030C032AC0F6000A08D200248E
:1058E0000022BCF1000F37D155E000BF002252E08A
:1058F0002EF00302C2F1000800F1010900226FF04E
:10590000030600BF09EB0604E5781FFA82FBD2B25A
:105910006A405AF822202379D7B287EA1B27657993
:105920007B405AF8233085EA12225A40D2B2A47939
:105930005AF8222084EA132395B25A40D2B23AF898
:105940002220043608EB0603043382EA1522D9D15B
:10595000341DBCF1000F1ED0055D96B2D2B26A4074
:105960005AF82250BCF1010F85EA162213D0AEB2CC
:1059700005196C78D2B262405AF82240BCF1020F8D
:1059800084EA162207D0AE78D2B272403AF82220CA
:10599000A3B282EA132210F80E30D6B2B34209D174
:1059A000084410F8010C91B2B0EB112F04BF012094
:1059B000BDE8F08F0020BDE8F08F00002DE9F04F2A
:1059C0000329A1F1020E0FD3CA1E45F6C87A0EF0C4
:1059D000030C032AC0F6000A08D200240022BCF1FE
:1059E000000F37D155E000BF002252E02EF0030235
:1059F000C2F1000800F1010900226FF0030600BFA8
:105A000009EB0604E5781FFA82FBD2B26A405AF825
:105A100022202379D7B287EA1B2765797B405AF881
:105A2000233085EA12225A40D2B2A4795AF82220B1
:105A300084EA132395B25A40D2B23AF822200436AF
:105A400008EB0603043382EA1522D9D1341DBCF1D8
:105A5000000F1ED0055D96B2D2B26A405AF82250AD
:105A6000BCF1010F85EA162213D0AEB205196C788D
:105A7000D2B262405AF82240BCF1020F84EA1622E8
:105A800007D0AE78D2B272403AF82220A3B282EAAE
:105A9000132200F80E20130A014490B201F8013CD1
:105AA000BDE8F08F10B545F6C87C0278C0F6000C52
:105AB0005CF822204378D4B2817863405CF82330CC
:105AC00081EA1221594090F803E0C9B25CF8211034
:105AD0008EEA13224A40D2B25CF8222082EA1121D7
