:020000040800F2
:100000006010002055020008AD3600089D30000841
:10001000A93600084D040008E94800080000000067
:10002000000000000000000000000000B5360008DD
:100030009904000800000000B1360008B936000835
:100040006F0200086F0200086F0200086F020008CC
:100050006F0200086F0200086F0200086F020008BC
:100060009D0400086F0200086F0200086F0200087C
:10007000510400085D0400086904000875040008C4
:100080006F0200086F0200086F0200086F0200088C
:100090006F0200086F0200086F020008A504000844
:1000A0006F0200086F0200086F0200086F0200086C
:1000B0007D37000889370008953700086F0200086F
:1000C0006F0200086F0200086F0200086F0200084C
:1000D0006F020008093F00086F020008953F000802
:1000E0006F0200086F0200086F0200086F0200082C
:1000F0006F0200086F0200086F0200086F0200081C
:100100006F0200086F0200086F0200086F0200080B
:10011000DD3800086F0200086F0200086F02000857
:100120006F0200086F020008810400086F020008D7
:100130006F0200086F0200086F0200086F020008DB
:100140006F0200086F0200086F0200086F020008CB
:100150006F0200086F0200088D0400086F0200089B
:100160006F0200086F0200086F0200086F020008AB
:100170006F0200086F0200086F0200080000000014
:100180006F0200086F02000800F002F800F052F859
:1001900014A696E8000CB244B344DA4501D100F04D
:1001A00049F8BAE80F000FA696E83000A5EB040561
:1001B00004EB0607AAEB0704A7F101074FEA1515A0
:1001C0004FEA3414A4F10104AC4201D300F032F838
:1001D00013F0010F18BFFB1A43F0010300F001F800
:1001E000DBE718474449000064490000103A24BF87
:1001F00078C878C1FAD8520724BF30C830C144BF8C
:1002000004680C6070470000704700000023002461
:1002100000250026103A28BF78C1FBD8520728BF16
:1002200030C148BF0B6070471FB504F05FFC1FBDB5
:1002300010B510BD00F0D0F81146FFF7F5FF04F03F
:1002400055FB00F0EEF803B4FFF7F2FF03BC00F03B
:10025000F5F800000948804709480047FEE7FEE737
:10026000FEE7FEE7FEE7FEE7FEE7FEE7FEE7FEE766
:1002700004480549054A064B7047000069370008E5
:1002800089010008600A002060100020600C002036
:10029000600C002053EA020C00F069802DE9F04B5D
:1002A0004FF00006002B1FBFB3FA83F503FA05F4E5
:1002B00024FA05F65E4012BF1643B2FA82F502FA3E
:1002C00005F4C5F120051EBF22FA05FC44EA0C0422
:1002D000203556EA044C4FEA144418BF641C4FF012
:1002E00000084FF00009904271EB030C39D300294C
:1002F00019BFB1FA81F701FA07F6B0FA80F700FAF0
:1003000007F6C7F120071EBF20FA07FC46EA0C06D5
:100310002037B6FBF4FCA7EB0507103F07F01F0BD7
:10032000CBF120062CFA06F60CFA0BFB44BFB346C1
:100330000026202FA4BF5E464FF0000B5BEA060CA0
:1003400008BF4FF0010B19EB0B0948EB0608ABFB9C
:10035000027C06FB02CC0BFB03CCC01B71EB0C0137
:10036000C1E70B46024641464846BDE8F08B13B54F
:10037000084318BF4FF0FF300146AFF30080BDE8DF
:100380001C4070474FF0000200B513469446964655
:10039000203922BFA0E80C50A0E80C50B1F1200198
:1003A000BFF4F7AF090728BFA0E80C5048BF0CC046
:1003B0005DF804EB890028BF40F8042B08BF7047A4
:1003C00048BF20F8022B11F0804F18BF00F8012B16
:1003D0007047704770477047754600F02BF8AE467F
:1003E00005006946534620F00700854618B020B541
:1003F000FFF73EFFBDE820404FF000064FF000073A
:100400004FF000084FF0000BAC46ACE8C009ACE878
:10041000C009ACE8C009ACE8C00921F007018D466D
:10042000704710B50446AFF300802046BDE8104089
:10043000FFF709BF0048704710000020014918204D
:10044000ABBEFEE72600020070470000FEE700009A
:1004500040F2C020C2F2000000F082B940F2401029
:10046000C2F2000000F07CB940F22030C2F200007D
:1004700000F076B940F2A010C2F2000000F070B9AE
:1004800040F20020C2F2000000F06AB940F26020A1
:10049000C2F2000000F064B970470000042000F0D0
:1004A00095BB0000402000F091BB000072B600BF79
:1004B000FEE70000002804BF01207047B0B50446E5
:1004C00090F8200010B9204600F06EF8206801680E
:1004D00041F00101016000F063FC054620684168BD
:1004E000C90705D100F05CFC401B0B28F6D310E0D7
:1004F000016821F00201016000F052FC054600BFD6
:100500002068416889070DD500F04AFC401B0B2884
:10051000F6D3606A052140F400306062012084F85F
:100520002010B0BD217E0268012922F0800208BFA0
:1005300080320260617E0268012922F0400208BF19
:1005400040320260A17E0268012922F0200208BF29
:1005500020320260E17E0268012922F0100218BFF9
:1005600010320260217F0268012922F0080208BFD0
:1005700008320260617F0268012922F0040208BF8C
:1005800004320260D4E901C2D4E9033561691A4337
:100590002A431143ACF101021143C1610020012142
:1005A000606284F82010B0BD80B586B0006846F661
:1005B0000002C4F2000200219042CDE90411CDE90D
:1005C000021101912ED046F20041C4F2000188428E
:1005D00069D140F2EC01C2F200010A6843F6400022
:1005E000C4F20200531C0B6052B900210091016853
:1005F00041F000710160016801F000710091009903
:100600000021009150F8101C41F0020140F8101C2C
:1006100050F8100C00F00200009000984FF4407069
:1006200031E000BF43F64000C4F2020000910168CF
:1006300041F080610160016801F0806100910099E2
:1006400040F2EC01C2F200010A68531C0B6052B97F
:1006500000210091016841F000710160016801F022
:100660000071009100990021009150F8101C41F098
:10067000020140F8101C50F8100C00F0020000902D
:1006800000984FF440500190022002900020039007
:10069000032004900920059040F20040C4F20200BB
:1006A00001A900F09FFA06B080BD000070B5866D0C
:1006B000044600F075FB94F83510022928D1054650
:1006C0002068216C026822F016020260426922F062
:1006D0008002426109B9A16C19B1016821F00801D9
:1006E0000160016821F00101016000BF206800681D
:1006F000C00715D000F054FB401B0628F6D320207D
:100700006065032084F83500002184F8341070BD42
:10071000802060650120002184F8341070BD00BF86
:10072000E06D3F2101FA00F0B060012084F835004F
:100730000020002184F8341070BD000090F83510BE
:10074000022909D1052180F835100068016821F0DF
:100750000101016000207047802141650120704740
:10076000F0B581B00021009140F20801C2F2000111
:100770000B68D0E9166148F2B51537680822C1F652
:100780004E358A403A42A3FB05350CD003681C68FD
:10079000640708D51C6824F004041C60B260426D34
:1007A00042F00102426501228A403A4208D00368C1
:1007B0005B691B0604D5B260426D42F002024265DD
:1007C00004228A403A4208D003681B689B0704D57C
:1007D000B260426D42F00402426510228A403A4201
:1007E00019D001680B681B0715D5B2600B680A6841
:1007F0005B0309D4D20509D40A6822F008020A6012
:10080000016C29B907E000BF110341D4016C11B19B
:10081000044688472046C26D202101FA02F33B427C
:1008200043D001680F68FF063FD5B36090F835707C
:100830000B68052F1CD123F016030B604B6923F0C6
:1008400080034B61036C0BB9836C1BB10B6823F005
:1008500008030B603F219140B160012180F8351001
:10086000016D0022002980F8342054D158E000BFE7
:100870000A685B0310D4D20512D40A6822F0100271
:100880000A60012180F83510002180F8341007E05B
:10089000816C0029BCD1BEE7110301D4416C00E09A
:1008A000C16B11B1044688472046416DC1B3416D0B
:1008B000C9072ED0052180F835100168AA0A0B68F7
:1008C00023F001030B60009B0133934200931AD87D
:1008D0000B68DB0717D0009B01339342009312D8BB
:1008E0000B68DB070FD0009B0133934200930AD8BB
:1008F0000B68DB0707D0009B01339342009302D8BB
:100900000B68DB07DFD1012180F83510002180F86A
:100910003410C16C21B101B0BDE8F040084700BF00
:1009200001B0F0BD2DE9F041044600F039FAECB118
:100930000546022084F835000020216884F8340040
:10094000086820F00100086021680868C00711D01D
:1009500000F026FA401B0528F6D9032520230320A2
:10096000636584F83550BDE8F08100BF0120BDE823
:10097000F08100BF086848F23F02CFF21002D4E9CC
:10098000013500EA020C04F10C0898E8C10143EAC1
:100990000C032B431843D4E9072E3043384310434C
:1009A000626A40EA0E00042A40EA08031CD1206B68
:1009B000D4E90A2E40EA0E00184308604869BEF1E7
:1009C000000F20F0030040EA020040F0040C11D0B8
:1009D000B8F5005F36D0B8F1000F45D1022A46D0F5
:1009E000012A3BD032B942E00B60486920F0070091
:1009F00040EA020C01F0F8004AF6AB221038CAF6C1
:100A0000AA22A0FB02231A0944F61E33C1F814C01F
:100A1000C0F600039A5C40F2FF335F284FF03F00BE
:100A200021EA030100FA02F088BF0431C4E916127A
:100A30008860002301250020636584F83550BDE8F7
:100A4000F08100BF032AD5D8012540230120DFE82B
:100A500002F0030E030500BF82E700BFAEF1C070D5
:100A6000B0FA80F0400904E0032A04D3C2D1CEF3E7
:100A700000600028BED0012540230120636584F872
:100A80003550BDE8F081000090F834C0BCF1010F92
:100A900004BF0220704770B54FF0010C80F834C0DD
:100AA000D0F858E090F835C0BCF1010F38D14FF0C4
:100AB000020C80F835C04FF0000CC0F854C0D0F8DC
:100AC00000C08468056CC06DDCF80060402C26F422
:100AD0008026CCF80060CCF804300B4604BF1346E7
:100AE0000A463F2101FA00F0CCF80830CCF80C207F
:100AF000CEF80800DCF8000040F01600CCF800004A
:100B00002DB1DCF8000040F00800CCF80000DCF863
:100B1000000040F00100CCF80000002070BD00BFD4
:100B2000002180F83410022070BD0000B0B50446EA
:100B300000F036F9054640F20000C2F200000078ED
:100B4000611C18BF044400BF00F02AF9401BA042FA
:100B5000FAD3B0BD3F280BDC042827D0102833D1AE
:100B600040F27000C2F2000001210171704700BF25
:100B7000402823D0B0F5804F18BF704780B540F2B1
:100B80007000C2F200000121817140F61C00C2F227
:100B9000000001F063F840F60000C4F202001021EA
:100BA0000022BDE8804000F0F5B800BF40F27000C0
:100BB000C2F200000121C170704700BF40F2700016
:100BC000C2F20000012141717047000043F6144158
:100BD000C4F201010A68024214BF08607047FFF7BF
:100BE000B9BF00002DE9F04F83B000F1200200F101
:100BF0003E4741F60045009207F1FF77C4F2020537
:100C000008224FEAB726A84208BF072200254FF066
:100C100000084FF00009072E38BF4FEAB7220192B3
:100C20000AE000BF09F1010908F10208B9F1100F4B
:100C300005F1040500F0A2800F68012202FA09FE06
:100C400017EA0E0AEED0D1F804C003220CF0030715
:100C50007E1E02FA08F4012E6FEA040B12D8846893
:100C6000CE6804EA0B0406FA08F63443846044684C
:100C700024EA0E06CCF3001404FA09F42643466075
:100C800004E000BF032F01D103271EE0C6688C6873
:100C900006EA0B0604FA08F42643022FC66014D1B4
:100CA0006FF00302009E02EA590756F807C005F0EC
:100CB0001C040F220B69A2402CEA0202A3401A4333
:100CC000F251D1F804C00CF00307026807FA08F3E8
:100CD00002EA0B021A431CF4403F0260A2D0002239
:100CE00043F644030292C4F202031A6843F6004436
:100CF00042F480421A601A68C4F2010402F480428D
:100D00000292029A29F003024FF6084C2244CFF6D1
:100D1000FF7C52F80C3005F00C070F26BE40B343A1
:100D2000019E06FA07F73B4342F80C30A2684B6875
:100D300042EA0A0743F60C4CDE0258BF22EA0A07D1
:100D4000A760C4F2010CDCF800209E0242EA0A0708
:100D500058BF22EA0A07CCF8007062689E0342EA94
:100D60000A0758BF22EA0A0767602268DB0342EAE3
:100D70000A0758BF22EA0A07276053E703B0BDE815
:100D8000F08F0000426902EA0103914341EA034106
:100D900081617047002A08BF090481617047000023
:100DA00040F65820C2F2000000687047002804BFD7
:100DB00001207047B0B582B00446056890F8D503AD
:100DC00028B9002084F8D403204600F035F8032029
:100DD000B5F1A04F84F8D50304BF0020A0712068AE
:100DE00003F056FA94E80F00257C009503F014F9FF
:100DF00030B10120022184F8D51302B0B0BD00BF8C
:100E00002068012103F0BCFB30B10221012084F8ED
:100E1000D51302B0B0BD00BF94E80F00257C00954B
:100E200003F03EFA012100281CBF0221012084F8B2
:100E3000D51302B0B0BD0000B0B586B00068002484
:100E4000B0F1A04F0594CDE903440294019401D080
:100E500006B0B0BD43F630050094C4F20205286820
:100E600001A940F001002860286800F0010000900E
:100E700000984FF4C05001900220CDE902040320F5
:100E800004900A2005900020C4F20200FFF7AAFE99
:100E9000686840F0800068600094686940F48040B1
:100EA0006861686900F480400090009806B0B0BDA9
:100EB000002804BF01207047F0B581B0044690F8C7
:100EC0003D0028B9002084F83C00204600F0A2F83C
:100ED000242084F83D002068016821F001010160B0
:100EE000016841F400410160016821F400410160A2
:100EF00000F0FAFA636848F2A16CC0F2010C40F607
:100F00000011C0F23D0163453CBF48F28041C0F290
:100F10001E01884202D2012001B0F0BD4DF683616E
:100F2000C4F21B31A0FB01122168970CD1F804E038
:100F30004FF496762EF03F0545EA92454D60774393
:100F400048F638160D6AC0F24106A7FB067625F072
:100F50003F07634538BF960C721C3A430A62CA6960
:100F600048F2A0664CF6FF77C0F20106B34222EACF
:100F700007020BD801385B00B0FBF3F001306FF3D0
:100F80001F30042898BF04201BE000BFA768013869
:100F900057B119277B43B0FBF3F001306FF31F30DB
:100FA00070B100F5804007E003EB4303B0FBF3F0C2
:100FB00001306FF31F3018B100F5004001E000BFB1
:100FC00001201043C8610868D4E9072320F0C0005D
:100FD000104318430860886848F2FF3204F10C0798
:100FE00090438CCF18431043A6698860C86820F0EE
:100FF000FF0038433043C860086840F001000860D3
:1010000000202021206484F83D10206384F83E00F5
:1010100001B0F0BD2DE9F04786B045F60046006806
:10102000C4F200060025B0420595CDE903550295AE
:10103000019503D006B0BDE8F08700BF43F6300746
:101040000095C4F20207386801AC40F00400386033
:1010500038684FF0120800F00400009000980095E6
:1010600038684FF0030940F00100386038684FF0ED
:10107000040A00F00100009000984FF40070019005
:1010800006F5D6302146CDE90285CDF81090CDF891
:1010900014A0FFF7A7FD4FF48070CDE9010803A865
:1010A00080E8200606F5D2302146FFF79BFD00952B
:1010B000386940F400003861386900F4000000909D
:1010C000009806B0BDE8F08740F2000040F65821D5
:1010D000C2F20000C2F2000100780A681044086001
:1010E0007047000080B543F60040C4F2020001687A
:1010F00041F400710160016841F4806101600168A0
:1011000041F480710160032000F086F80F2000F0A8
:1011100005F800F027F8002080BD000070B540F20F
:101120000006C2F2000640F208013278C2F2000165
:101130004FF47A730968B3FBF2F20446B1FBF2F1A3
:10114000084600F0A7FC0F2C4FF0010508D838B96D
:101150004FF0FF3021460022002500F031F8746086
:10116000284670BD82B0002043F640010190C4F2D1
:1011700002014A6842F480424A604A6802F48042AE
:101180000192019A0090086840F080500860086859
:1011900000F080500090009802B07047002848BFCF
:1011A000704700F01F01012202FA01F11C2202EA3D
:1011B000D0004EF20012CEF20002815070470000C3
:1011C00010B54EF60C5CCEF2000CDCF80030C3F328
:1011D000022E8EF00704042C28BF0424BEF1030362
:1011E0004FF0FF3E0EFA04F438BF0023A1439940AC
:1011F0000EFA03F39A43114300F00F0200F160432B
:101200000901043A03F564436244002848BF02F12F
:101210000C03197010BD00004EF60C51CEF2000107
:101220000A684FF6FF031A4060F30A2242F080601A
:1012300040F0FD7008607047F0B581B0044600686A
:1012400010F0050F2DD06827C4F2472743F670062B
:101250000020C4F202063860FFF7A2FD054600BF79
:1012600056F8700C000105D5FFF79AFD401B0228C7
:10127000F6D93FE0D4E90101090741EA8010706125
:1012800001203860FFF78CFD054600BF56F8700C52
:10129000000105D4FFF784FD401B0228F6D929E0A0
:1012A000206880074FF0000058D543F67006C4F25E
:1012B0000206009056F8300C47F2000740F08050CC
:1012C00046F8300C56F8300CC4F2000700F080509D
:1012D00000900098386840F480703860FFF760FD37
:1012E000054600BF3868C00508D4FFF759FD401B0C
:1012F0000228F7D9032001B0F0BD00BF306810F418
:10130000407013D0E16801F4407188420ED030681B
:1013100040F64061C4F24721012220F440700A6087
:1013200000220A6030603068C00719D1E06856F8C2
:10133000681C4FF6FF4300F4407221F4F811C0F628
:10134000FF730340B2F5407F08BF194346F8681C9D
:1013500031686FF31F3008433060002001B0F0BDEA
:10136000FFF71EFD054641F2883700BF3068800751
:10137000DCD4FFF715FD401BB8424FF00300F5D950
:10138000ECE70000002804BF012070472DE9F04180
:1013900043F60808C4F202080446D8F8F8030D46DC
:1013A00000F00700814207D988F8F853D8F8F8030D
:1013B00000F00700A84277D12068810717D54107C0
:1013C00005D5D8F8001041F4E051C8F80010010725
:1013D00005D5D8F8001041F46041C8F80010D8F8DD
:1013E0000010A26821F0F0011143C8F80010C007F6
:1013F00040D1D8F8F80300F00700854207D288F8FA
:10140000F853D8F8F80300F00700A8424CD1206840
:10141000410707D5D8F80010E26821F4E0511143E4
:10142000C8F80010000708D5D8F80000216920F49A
:10143000604040EAC100C8F8000000F07DF8D8F82C
:10144000001044F60632C1F30311C0F60002515CED
:1014500040F2080220FA01F140F20400C2F200005A
:101460000068C2F200021160FFF758FE0020BDE8DC
:10147000F08100BF6068811E022907D258F8081C5D
:1014800089015CBF0120BDE8F08111E0012807D18E
:1014900058F8081C89035CBF0120BDE8F08107E013
:1014A00058F8081C890703D40120BDE8F08100BF6B
:1014B000D8F8001021F003010843C8F80000FFF736
:1014C0006FFC064641F28837D8F80000616800F0EA
:1014D0000C00B0EB810F8CD0FFF762FC801BB84290
:1014E000F2D90320BDE8F08140F2080043F608017C
:1014F000C2F20000C4F202010068096844F6163224
:10150000C1F38221C0F60002515CC8407047000060
:1015100040F2080043F60801C2F20000C4F20201E2
:101520000068096844F61632C1F34231C0F6000281
:10153000515CC8407047000010B543F60404C4F283
:1015400002046168C1F3810142F20040C0F2F4007C
:10155000DFE801F002040A0210BD00BF41F20020E2
:10156000C0F27A0010BD00BF216801F03F0221687F
:1015700023684902C3F3881106D4A1FB00010023AC
:10158000FEF788FE07E000BF41F20020C0F27A00BB
:101590004843B0FBF2F021680222C1F3014102EBA3
:1015A0004101B0FBF1F010BD002804BF01207047DD
:1015B0002DE9F04182B00446007843F60006C007EA
:1015C000C4F202060CD0B06800F00C00042840F011
:1015D00081803068800303D56068002800F068814E
:1015E000207880071BD5B06810F00C0F09D0B068C8
:1015F00000F00C00082840F087807068400200F17D
:1016000083803068800703D5E068012840F050816E
:101610003068216920F0F80040EAC100306020788D
:10162000000713D4207840072AD4A569002D00F0C4
:101630003A81B06800F00C00082840F0A580012D28
:1016400040F00E81012002B0BDE8F0816069002801
:1016500000F082800020C4F247200121C0F8801EE3
:10166000FFF79EFB054600BF706F8007DAD4FFF7D7
:1016700097FB401B0228F7D9032002B0BDE8F08198
:10168000306C5FEAC0080AD400200190306C40F052
:1016900080503064306C00F080500190019847F227
:1016A0000007C4F200073868C00547D4386840F422
:1016B00080703860FFF774FB054600BF3868C005CE
:1016C0003CD4FFF76DFB401B0228F7D9032002B082
:1016D000BDE8F081B06800F00C00082803D1706804
:1016E00040023FF576AF61683068B1F5803F07D0C2
:1016F000B1F5A02F40F09A8040F48020306030682F
:1017000040F4803030609AE0E068002840F2000049
:10171000C4F247205CD001210160FFF741FB054680
:10172000306880073FF574AFFFF73AFB401B022893
:10173000F6D9032002B0BDE8F08100BFA168306F88
:10174000012905D0052955D140F004003067306FDC
:1017500040F00100306756E00020C4F2472000212D
:10176000C0F8801EFFF71CFB054600BF706F8007A6
:101770007FF558AFFFF714FB401B0228F6D9032072
:1017800002B0BDE8F08100BF0027C4F24727002067
:101790003866FFF705FB022D05460DD13068800144
:1017A00040F18A80FFF7FCFA401B02284FF003004B
:1017B000F4D902B0BDE8F0813068800173D5FFF73D
:1017C000EFFA401B02284FF00300F5D9F1E700BF04
:1017D00000210160FFF7E4FA054600BF306880078A
:1017E0007FF51DAFFFF7DCFA401B02284FF0030026
:1017F000F4D9DEE720F001003067306F002920F0D7
:10180000040030677AD0FFF7CBFA054641F28837FB
:10181000306F800700F18480FFF7C2FA401BB842A6
:10182000F6D9032002B0BDE8F08100BF20F480307B
:1018300030603068002920F4802030607AD0FFF7D3
:10184000AFFA0546306880033FF5CAAEFFF7A8FA45
:10185000401B6428F6D9032002B0BDE8F08100BF28
:101860007068E16900F480028A4221D1216A00F0A7
:101870003F028A421CD147F6C071626A0140B1EB57
:10188000821F15D1A16A4FF6FF73C903994300F473
:101890004032A1F580318A420AD1E16A00F07060DD
:1018A000B0EB016F04D1002002B0BDE8F08100BFB1
:1018B000012002B0BDE8F08104F11C052FCD0843E2
:1018C00040EA8210D9034FF6FF729143A1F58031AF
:1018D00040EA05600843706001203866FFF760FA4F
:1018E000044600BF30688001DDD4FFF759FA001BC1
:1018F00002284FF00300F5D95BE700BFFFF750FA6D
:10190000054641F2883700BF306F800708D5FFF7E2
:1019100047FA401BB8424FF00300F5D949E700BF32
:10192000B8F1000F3FF581AE306C20F0805030648C
:101930007BE600BFFFF734FA054600BF306880033E
:101940007FF54EAEFFF72CFA401B64284FF00300E2
:10195000F4D92EE7002804BF01207047B0B5044633
:10196000407F20B900202077204600F071F8022047
:1019700060772168C868C0065ED4CA2048625320D8
:101980004862C868400615D4C86840F08000C86046
:10199000FFF706FA2168CA6852060BD4054600BF55
:1019A000FFF7FEF9401BB0F57A7F49D82168C86877
:1019B0004006F5D588684FF6BF72CFF68F7210409B
:1019C0008860D4E9010CD4E90335626928438D6845
:1019D0001043284388600B61086940EA0C400861A5
:1019E000C86820F08000C860886880061AD447F66E
:1019F0005F70C0F20100C860FFF7D2F9054600BF72
:101A00002168C86880060DD4FFF7CAF9401BB0F5FD
:101A10007A7FF5D9042060772068FF214162012098
:101A2000B0BD00BF086C20F480200864A0690A6C77
:101A300010430864FF204862012060770020B0BD99
:101A4000042060772068C168FF2141620120B0BD99
:101A500080B584B0006842F60002C4F200020021A2
:101A600090420291019101D004B080BD022000900B
:101A70004FF4007003906846FFF7DEFB002818BFA4
:101A8000FEF714FD40F63C60C4F2472001210160DE
:101A900004B080BD411E0020B0EB116F1CBF0120BF
:101AA00070474EF21002CEF2000251604EF6235102
:101AB000CEF20001F0230B70072190601160704797
:101AC000704700007047000090F83C20012A4FF05A
:101AD000020254D010B580F83D200268D2F804E02C
:101AE000D2F808C00C682EF07003234341F2FF7453
:101AF000C4F20004A24253600EDC40F2FF73C4F251
:101B000000039A4216DCB2F1804F2BD040F2004322
:101B1000C4F2000324E000BF40F2FF33C4F201032B
:101B20009A4213DC41F60003C4F200039A4219D032
:101B3000002313E040F60003C4F200039A4211D0E0
:101B400040F60043C4F200030AE000BF44F2000381
:101B5000C4F201039A4205D040F20043C4F20103EB
:101B60009A4204D149682CF0800319439160012105
:101B7000002280F83D1080F83C20BDE8104010465F
:101B800070470000002804BF0120704710B50446CC
:101B900090F83D0028B9002084F83C00204600F071
:101BA0001FF8022084F83D002068211D01F0F8FD97
:101BB000012084F8460084F83E0084F83F0084F851
:101BC000400084F8410084F8420084F8430084F81F
:101BD000440084F8450084F83D00002010BD00005A
:101BE00010B582B0006840F60001C4F200018842DE
:101BF00016D040F20041C4F2000188422CD10020EE
:101C0000019043F64000C4F2020001681D2441F037
:101C100002010160006800F00200019001980FE0ED
:101C20000020009043F64000C4F2020001681E2428
:101C300041F004010160006800F004000090009889
:101C4000204600210022FFF7BBFA204602B0BDE883
:101C50001040FFF7A3BA00BF02B010BD90F83D10CE
:101C600001291CBF01207047022180F83D10006847
:101C700041F2FF71C4F2000188420DDC40F2FF71B5
:101C8000C4F20001884215DCB0F1804F2AD040F246
:101C90000041C4F2000123E040F2FF31C4F201012F
:101CA000884213DC41F60001C4F20001884219D0D9
:101CB000002113E040F60001C4F20001884211D077
:101CC00040F60041C4F200010AE000BF44F2000106
:101CD000C4F20101884205D040F20041C4F2010182
:101CE000884206D1816801F00701062904BF00205F
:101CF0007047016841F00101016000207047000059
:101D000090F83D1001291CBF01207047022180F886
:101D10003D10006841F2FF72C168C4F200029042B7
:101D200041F00101C1600DDC40F2FF71C4F200011D
:101D3000884215DCB0F1804F2AD040F20041C4F255
:101D4000000123E040F2FF31C4F20101884213DCBC
:101D500041F60001C4F20001884219D0002113E0CD
:101D600040F60001C4F20001884211D040F6004163
:101D7000C4F200010AE000BF44F20001C4F2010114
:101D8000884205D040F20041C4F20101884206D1E8
:101D9000816801F00701062904BF0020704701682F
:101DA00041F0010101600020704700000146006819
:101DB00041F21113026A1A4204D00122002081F874
:101DC0003D207047026A40F244431A42F5D102684E
:101DD00022F0010202600122002081F83D207047BC
:101DE00090F83C20012A4FF002026CD080B580F8B8
:101DF0003D20D0F800C04FF67772DCF8083023EAB7
:101E00000202CCF808200B684F2B29DC1F2B45DD84
:101E1000202B46D0302B44D0402B40F0AF80D1F85F
:101E200004E0C968DCF82030DCF8202022F0010250
:101E3000CCF82020DCF8182022F0F00242EA011150
:101E400023F00A0242EA0E02CCF81810CCF8202047
:101E5000DCF8081041F0470121F0300128E000BF14
:101E60006F2B33DDB3F5005F74D0B3F5805F21D005
:101E7000702B40F08380D1E901E3C968DCF80820C9
:101E800043EA0E0322F47F4243EA01211143CCF8D6
:101E90000810DCF8081041F0770109E00BB1102BB5
:101EA0006CD1DCF8081021F07001194341F00701F2
:101EB000CCF808100022012180F83D10002180F8A4
:101EC0003C10BDE880401046704700BF502B21D029
:101ED000602B53D1D1F804E0C968DCF82030DCF87D
:101EE000202022F01002CCF82020DCF8182022F468
:101EF000704242EA013123F0A00242EA0E12CCF80D
:101F00001810CCF82020DCF8081041F0670121F00F
:101F10001001CDE7D1F804E0C968DCF82030DCF826
:101F2000202022F00102CCF82020DCF8182022F03A
:101F3000F00242EA011123F00A0242EA0E02CCF852
:101F40001810CCF82020DCF8081041F0570121F0DF
:101F50002001ADE7D1E901E3C968DCF8082043EAD4
:101F60000E0322F47F4243EA01211143CCF808100A
:101F7000DCF8081041F480419AE700BF01229AE79B
:101F8000002804BF012070472DE9F047044690F86F
:101F90003D000D4628B9002084F83C00204600F0A2
:101FA00049F8022084F83D00206844F20702816865
:101FB00091438160211D01F0F3FB20684FF6FF780B
:101FC00081688269D0F820C0D5E9003ED5E9026A6F
:101FD00043EA0109AB6922EA080246EA03234FF605
:101FE000FC46B343D5E9076742EA0A0229691A4366
:101FF00042EA062242EA01112CF0AA026B6942EA87
:102000000E0241EA073142EA0312C0F808908161EA
:102010000262012084F8460084F83E0084F83F0004
:1020200084F8420084F8430084F83D000020BDE8B5
:10203000F08700002DE9F04186B000680026B0F17D
:10204000804F0596CDE903660296019602D006B050
:10205000BDE8F08143F630000096C4F20200016949
:10206000002441F0010101610169C4F2020401F0A0
:102070000101009100990096016801AD41F0010154
:1020800001600168022701F00101009100990096AA
:1020900001684FF0010841F0020101600068294623
:1020A00000F00200009000984FF40040019020469C
:1020B000CDE902770497CDF81480FEF793FD082050
:1020C000CDE9010704F580602946CDE90366CDF826
:1020D0001480FEF787FD1C2000210022FFF770F816
:1020E0001C20FFF75BF806B0BDE8F08180B590F8E2
:1020F0003E2090F83F3090F842E090F843C0042929
:102100000AD0B9B9012A4FF0010208BFBEF1010F90
:1021100034D0104680BD00BF012B4FF0010208BF34
:10212000BCF1010FF5D1022180F83F1080F8431077
:1021300000681EE0012A4FF0010208BF012BE8D120
:10214000BEF1010FE5D1BCF1010FE2D1022280F80E
:102150003E2080F83F2080F8422080F8432091B153
:102160000068016A21F001010162016A41F0010188
:10217000016210216FF0100209E000BF022180F817
:102180003E1080F84210006801216FF00102036ADE
:102190001A400262026A114301620168002241F0A2
:1021A00001010160104680BD7047000070B5044613
:1021B0000068C5680669B10716D515F0020113D08D
:1021C0006FF002010161012121778069800703D04E
:1021D0002046FFF7E9FF05E0204600F08FF8204693
:1021E00000F08EF800202077700719D515F0040054
:1021F00016D020686FF00401016102212177806907
:1022000010F4407F04D02046FFF7CEFF06E000BF69
:10221000204600F073F8204600F072F80020207786
:10222000300717D515F0080014D020686FF00801AA
:10223000016104212177C069800703D02046FFF7A0
:10224000B3FF05E0204600F059F8204600F058F8AA
:1022500000202077F00619D515F0100016D0206860
:102260006FF01001016108212177C06910F4407FEF
:1022700004D02046FFF798FF06E000BF204600F09C
:102280003DF8204600F03CF800202077F00718BF0A
:1022900015F0010002D1300609D412E020686FF079
:1022A00001010161204600F02DF8300609D515F036
:1022B000800006D020686FF0800101612046FFF7A2
:1022C000FFFB700609D515F0400006D020686FF0BE
:1022D00040010161204600F045F8B00658BF70BDCE
:1022E00015F0200008D021686FF0200220460A6116
:1022F000BDE87040FFF7E6BB70BD0000704700000E
:102300007047000070B50446006840F20045B0F127
:10231000804FC4F2000512D140F27006C2F20006EE
:10232000B07A318AB0EB410F18D205F503304FF483
:102330000041FEF727FDB07A0130B0722068A84254
:1023400018BF70BD05F5013010210022FEF722FDF7
:102350002046BDE87040FFF729BD00BF0120F071A5
:1023600070BD0000704700007047000010B50446C3
:102370000068416994F84120212A56D111F080016A
:1023800053D000BF206850E8050F216820F080007E
:1023900041E80502DAB1206850E8050F216820F015
:1023A000800041E8050292B1206850E8050F2168DD
:1023B00020F0800041E805024AB1206850E8050F8E
:1023C000216820F0800041E80502002ADAD1A06BE4
:1023D000002818BFFEF76AF9206850E8030F21684B
:1023E00020F0C00041E80302DAB1206850E8030F92
:1023F000216820F0C00041E8030292B1206850E853
:10240000030F216820F0C00041E803024AB12068B0
:1024100050E8030F216820F0C00041E80302002AC1
:10242000DAD1202084F841002068406994F84210F5
:10243000222940F0A78010F0400000F0A38000BFE8
:10244000206850E8050F216820F0400041E80502AF
:10245000DAB1206850E8050F216820F0400041E81B
:10246000050292B1206850E8050F216820F0400075
:1024700041E805024AB1206850E8050F216820F0C4
:10248000400041E80502002ADAD1E06B002818BFBD
:10249000FEF70CF9206850E8030F216820F49070D3
:1024A00041E80302BAB3206850E8030F216820F422
:1024B000907041E8030272B3206850E8030F21686E
:1024C00020F4907041E803022AB3206850E8030F1B
:1024D000216820F4907041E80302002ADAD11AE062
:1024E000206850E8050F216820F0010041E805024E
:1024F000DAB1206850E8050F216820F0010041E8BA
:10250000050292B1206850E8050F216820F0010013
:1025100041E805024AB1206850E8050F216820F023
:10252000010041E80502002ADAD1206B012824D1FC
:10253000206850E8030F216820F0100041E80302F2
:10254000DAB1206850E8030F216820F0100041E85C
:10255000030292B1206850E8030F216820F01000B8
:1025600041E803024AB1206850E8030F216820F0D7
:10257000100041E80302002ADAD1202084F842004A
:1025800000202063002010BD70470000B0B582B06D
:1025900001680A68CC684B6902F02F05202D04F011
:1025A000200505D125B102B0BDE8B04001F0B8BBAF
:1025B0005FEA027C1EBF03F0010E04F4907313EB7C
:1025C0000E0341D1036BD50618D5012B16D114F09B
:1025D000100313D0002201920A6801924A68019206
:1025E000019A496949064BD4818DC28DC38D002B58
:1025F00018BF914240F0068202B0B0BD13062DD53F
:1026000014F080032AD090F84120212AF4D1826866
:10261000B2F5805F03D10269002A00F07982026A74
:10262000531C036212784A60C28C013A1304C284BC
:10263000E2D1C86820F08000C860C86840F040005F
:10264000C86002B0B0BD00BFD30718BF14F48073D8
:1026500040F0E280530700F1E580EAE05206CBD576
:1026600014F04002C8D0CA6822F04002CA6020219B
:1026700080F8411002B0BDE8B04000F00BBD00BFD3
:10268000C26B11684B68858D99B2002900F0B48047
:10269000A94280F0B180C385D169B1F5807F00F097
:1026A000A080016851E8031F026821F4807142E8AC
:1026B0000313DBB1016851E8031F026821F4807144
:1026C00042E8031393B1016851E8031F026821F443
:1026D000807142E803134BB1016851E8031F02689F
:1026E00021F4807142E80313002BDAD1016851E82C
:1026F000051F026821F0010142E80513BBB3016820
:1027000051E8051F026821F0010142E8051373B387
:10271000016851E8051F026821F0010142E8051334
:102720002BB3016851E8051F026821F0010142E85E
:102730000513002BDAD11AE0016851E8051F026881
:1027400021F0400142E80513DBB1016851E8051FA3
:10275000026821F0400142E8051393B1016851E895
:10276000051F026821F0400142E805134BB10168E2
:1027700051E8051F026821F0400142E80513002BD3
:10278000DAD1202180F8421000210163016851E86C
:10279000031F026821F0100142E80313DBB1016856
:1027A00051E8031F026821F0100142E8031393B1BE
:1027B000016851E8031F026821F0100142E8031389
:1027C0004BB1016851E8031F026821F0100142E893
:1027D0000313002BDAD1C16B04460846FDF766FFF0
:1027E000204602214163818DC28D891A89B202B0CF
:1027F000BDE8B040FFF7B8BD8D427FF4FDAED269B1
:10280000B2F5807F7FF4F8AE0222426302B0BDE8E9
:10281000B040FFF7A9BD00BF436C43F00103436420
:10282000530706D5BEF1000F03D0436C43F00203FB
:102830004364930706D5BEF1000F03D0436C43F009
:1028400004034364BCF1000F06D55EEA050303D020
:10285000436C43F008034364436C002B3FF4CCAE5D
:10286000920605D525B1044601F05AFA21682046A2
:102870004969426C01F0400102F00802891800F039
:10288000B98000BF016851E8031F026821F490710C
:1028900042E80313BBB3016851E8031F026821F447
:1028A000907142E8031373B3016851E8031F026893
:1028B00021F4907142E803132BB3016851E8031F20
:1028C000026821F4907142E80313002BDAD11AE078
:1028D000016851E8051F026821F0010142E8051373
:1028E000DBB1016851E8051F026821F0010142E8EF
:1028F000051393B1016851E8051F026821F0010139
:1029000042E805134BB1016851E8051F026821F048
:10291000010142E80513002BDAD1016B012924D112
:10292000016851E8031F026821F0100142E8031317
:10293000DBB1016851E8031F026821F0100142E891
:10294000031393B1016851E8031F026821F01001DD
:1029500042E803134BB1016851E8031F026821F0FC
:10296000100142E80313002BDAD1202180F8421035
:102970000021016301684969490640F1C38001688B
:1029800051E8051F026821F0400142E80513DBB160
:10299000016851E8051F026821F0400142E8051373
:1029A00093B1016851E8051F026821F0400142E837
:1029B00005134BB1016851E8051F026821F0400181
:1029C00042E80513002BDAD1C16B002900F09A8090
:1029D00043F66912C0F60002044608460A65FDF790
:1029E000ADFE00283FF408AEE06B016D02B0BDE81B
:1029F000B04008470446FFF7C7FD0020606402B0FE
:102A0000B0BD00BF891A00BF026852E8032F0368F7
:102A100022F4907243E80325BDB3026852E8032F05
:102A2000036822F4907243E8032575B3026852E804
:102A3000032F036822F4907243E803252DB3026844
:102A400052E8032F036822F4907243E80325002D17
:102A5000DAD11AE0026852E8052F036822F0010279
:102A600043E80525DDB1026852E8052F036822F02E
:102A7000010243E8052595B1026852E8052F036875
:102A800022F0010243E805254DB1026852E8052F06
:102A9000036822F0010243E80525002DDAD1202247
:102AA00080F8422000220263026852E8032F036884
:102AB00022F0100243E80325DDB1026852E8032F3B
:102AC000036822F0100243E8032595B1026852E83A
:102AD000032F036822F0100243E803254DB102687A
:102AE00052E8032F036822F0100243E80325002D6B
:102AF000DAD1022289B2426302B0BDE8B040FFF7EA
:102B000033BC00BF02B0BDE8B040FFF73DBD00BF21
:102B1000026A32F8023B6FF35F234B60026283E587
:102B2000002804BF0120704710B5044690F841000A
:102B300028B9002084F84000204600F021F8242025
:102B400084F841002068C16821F40051C16020462A
:102B500001F066F92068016921F490410161416941
:102B600021F02A014161C16841F40051C160002097
:102B70002021606484F8411084F84210606310BD25
:102B80002DE9F04387B00446006844F60001C4F222
:102B9000000100268842CDE90566CDE9036602966C
:102BA00000F0DA8041F20001C4F2010188426DD0E8
:102BB00044F60041C4F20001884240F03A8143F6F5
:102BC00030000196C4F20200016946F2280841F47F
:102BD000002101610169C4F2020801F400210191A0
:102BE00001990196016841F004010160006802A9A1
:102BF00000F00400019001984FF440600290022020
:102C0000CDE90306032005900820069040F200401D
:102C1000C4F2020000F58060FDF7E4FF40F24015C9
:102C200008F11800C2F200054FF000674FF4806908
:102C3000C5E900072846C5E90266C5E90496C5E965
:102C40000666C5E90866FDF76DFE002818BFFDF7AA
:102C50002DFCE563AC6340F2A01508F14800C2F218
:102C600000054021C5E9000705F1080080E842029F
:102C70002846C5E90566C5E907666E62FDF752FE9E
:102C800000284FF0340640F0C880C8E043F630001A
:102C90000196C4F20200416946F2280841F0100191
:102CA00041614169C4F2020801F0100101910199EA
:102CB0000196016841F002010160006802A900F07C
:102CC000020001900198C02002900220CDE9030685
:102CD000032005900720069040F20040C4F2020055
:102CE000FDF780FF40F2002508F58360C2F2000581
:102CF0004FF000674FF48069C5E900072846C5E931
:102D00000266C5E90496C5E90666C5E90866FDF7E9
:102D100009FE002818BFFDF7C9FBE563AC6340F26C
:102D2000602508F59260C2F200054021C5E9000760
:102D300005F1080080E842022846C5E90566C5E9B4
:102D400007666E62FDF7EEFD00284FF0250618BFFE
:102D5000FDF7ACFB63E000BF43F630000196C4F220
:102D60000200016946F2280841F4802101610169ED
:102D7000C4F2020801F480210191019901960168D1
:102D800041F002010160006802A900F00200019018
:102D900001984FF4406002900220CDE90306032021
:102DA00005900720069040F20040C4F20200FDF7B3
:102DB00019FF40F2C025C2F200054FF000674FF442
:102DC00080692846C5E90087C5E90266C5E9049619
:102DD000C5E90666C5E90866FDF7A4FD002818BF29
:102DE000FDF764FBE563AC6340F2203508F1300089
:102DF000C2F200054021C5E9000705F108000022E4
:102E000080E806022846C5E90522C5E907226A626C
:102E1000FDF788FD4FF0270608B1FDF747FB304668
:102E200000210022A563AC63FEF7CAF93046FEF725
:102E3000B5F907B0BDE8F08370B582B090F84250A4
:102E4000202D0BD113460A460146002A4FF00100FF
:102E500018BF002B06D102B070BD00BF022002B027
:102E600070BD00BF002622200E638A628B854E64EF
:102E700081F842000C680D46C86B43F6F12C43F60E
:102E80005141C0F6000CC0F60001C0E90FC143F685
:102E90007511C0F60001C0E91316211DFDF7F4FD00
:102EA00040B110206864202085F84200012002B063
:102EB00070BD00BF019628682946026801924068EB
:102EC00001900198286928B3086850E8030F0A6840
:102ED00040F4807042E80303E3B1086850E8030F50
:102EE0000A6840F4807042E803039BB1086850E828
:102EF000030F0A6840F4807042E8030353B1086886
:102F000050E8030F0A6840F4807042E80303002B86
:102F1000DAD100BF086850E8050F0A6840F00100E8
:102F200042E80503DBB3086850E8050F0A6840F083
:102F3000010042E8050393B3086850E8050F0A68EA
:102F400040F0010042E805034BB3086850E8050F64
:102F50000A6840F0010042E80503002BDAD11EE0C8
:102F6000086850E8050F0A6840F0400042E8050391
:102F7000FBB1086850E8050F0A6840F0400042E8DD
:102F80000503B3B1086850E8050F0A6840F0400037
:102F900042E80503002B4FF000003FF45CAF0868E7
:102FA00050E8050F0A6840F0400042E80503002B96
:102FB000D6D1002002B070BD7047000070470000FD
:102FC000B0B590F84140202C1CBF0220B0BD134684
:102FD000024600294FF0010018BF002B00D1B0BD00
:102FE0004FF0000C212011629384D384C2F844C0B6
:102FF00082F8410014681546906B43F6694E43F61B
:103000001952C0F6000EC0F60002C0E90FE243F606
:103010007512C0F60002C0E9132C221DFDF734FD25
:1030200030B110206864202085F841000120B0BD37
:10303000286829466FF04002026000BF086850E827
:10304000050F0A6840F0800042E8050303B30868F2
:1030500050E8050F0A6840F0800042E80503BBB164
:10306000086850E8050F0A6840F0800042E8050350
:1030700073B1086850E8050F0A6840F0800042E824
:103080000503002B4FF0000008BFB0BDD6E700BF1E
:103090000020B0BD7047000070470000FEE7000050
:1030A00080B540F2F00046F20041C2F20000C4F2E6
:1030B00000010023102280E80E00C0E90333C0E9BC
:1030C00005338383FDF7F6F9002808BF80BDBDE80E
:1030D0008040FDF7EBB9000080B540F2181046F6CD
:1030E0000001C2F20000C4F200010023102280E8B7
:1030F0000E00C0E90333C0E905338383FDF7DAF935
:10310000002808BF80BDBDE88040FDF7CFB90000B2
:1031100080B582B0002043F630010190C4F2020174
:103120000A6842F400120A600A6802F4001201926E
:10313000019A00900868002240F480000860086846
:10314000002100F48000009000980C20FEF738F871
:103150000C20FEF723F80D2000210022FEF730F8A6
:103160000D20FEF71BF80E2000210022FEF728F8A4
:103170000E20FEF713F80F2000210022FEF720F8A2
:103180000F20FEF70BF83A2000210022FEF718F876
:103190003A20FEF703F8462000210022FEF710F83F
:1031A000462002B0BDE88040FDF7F8BF2DE9F04FA2
:1031B00087B0002643F630000696CDE90466CDE9D7
:1031C00002660196C4F20200016840F6004941F02F
:1031D000100101600168C4F2020901F010010191BF
:1031E00001990196016809F5806441F004010160CC
:1031F0000168002201F00401019101990196016822
:1032000041F080010160016801F0800101910199A4
:103210000196016841F001010160016801F00101BE
:10322000019101990196016841F002010160016874
:1032300001F00201019101990196016841F0080134
:103240000160006848F2080100F008000190019850
:103250002046FDF79FFDA9F5806A504644F21F11F4
:103260000022FDF797FDA9F5406528468021002240
:10327000FDF790FD48464FF4C0610022FDF78AFD3E
:10328000A9F500684046102101224FF0010BFDF71F
:1032900081FD404620210022FDF77CFD44F2140010
:1032A00002904FF4041002AFCDE9030620463946E0
:1032B000FDF798FC48F20800CDE9020B204639469C
:1032C000CDE90466FDF78EFC4FF40150CDE902060E
:1032D000204639460496FDF785FC4FF40050CDE9B1
:1032E0000206504639460496FDF77CFC44F21F1056
:1032F0000290012450463946CDE903460596FDF774
:1033000071FC3020CDE90206284639460496FDF7C7
:1033100069FC402002904FF40410CDE903062846D2
:103320003946FDF75FFC802002A951C12846394685
:103330000596FDF757FC4FF4C06002A951C14846FD
:1033400039460596FDF74EFC4FF44840CDE902069C
:10335000484639460496FDF745FC4FF480500290EC
:103360004FF0020B0324082550463946CDE903B639
:1033700005940695FDF736FC0420CDE9020B48467E
:103380003946CDE904640695FDF72CFC6020CDE9B3
:10339000020B0720069048463946CDE90464FDF744
:1033A00021FC302002900120CDE903064046394639
:1033B0000596FDF717FC082000210022FDF700FF0D
:1033C0000820FDF7EBFE172000210022FDF7F8FE94
:1033D0001720FDF7E3FE07B0BDE8F08F80B540F29F
:1033E000607045F60041C2F20000C4F2000148F2EC
:1033F000A06200234FF4804CC0F2010280E80E006E
:10340000C0E9033CC0E90533C0E90733FDF750FDCF
:10341000002808BF80BDBDE88040FDF747B8000028
:1034200080B540F2B47042F60001C2F20000C4F26E
:10343000000100227F234FF0FF0C80E80E10C0E94E
:1034400004228261FEF786FA002808BF80BDBDE82D
:103450008040FDF72BB8000080B58CB040F2D470EE
:103460000021C2F200004FF08042C0E9002180221A
:10347000826103224FF0FF33CDE903210122CDE920
:103480000011C0E902130161CDE90521CDE9071161
:10349000CDE909210B9103A9FEF772FD002818BFA1
:1034A000FDF704F840F2D470C2F200006946FEF75E
:1034B0000BFB002818BFFCF7F9FF0CB080BD000023
:1034C00080B586B040F61C0040F200420021C2F2F6
:1034D0000000C4F2000241F61F4341F2873C05910F
:1034E000CDE90311CDE90011C0E90023C0E9021CB8
:1034F00001618161FEF746FB002818BFFCF7D6FF8B
:103500004FF48050029040F61C00C2F2000002A965
:10351000FEF766FC002818BFFCF7C8FF40F61C0049
:10352000C2F200006946FEF7CFFA002818BFFCF788
:10353000BDFF06B080BD000080B586B040F66400D7
:103540000021C2F2000040F6000240F2E73C059183
:10355000CDE90311CDE90011C4F2000241F61F4389
:10356000C0E9021C01618021C0E900238161FEF7EE
:1035700009FB002818BFFCF799FF4FF48050029018
:1035800040F66400C2F2000002A9FEF729FC002800
:1035900018BFFCF78BFF40F66400C2F200006946DA
:1035A000FEF792FA002818BFFCF780FF06B080BD36
:1035B00080B540F63C1044F60041C2F20000C4F26F
:1035C000000100234FF00C0C4FF4E13280E80E00B4
:1035D000C0E90333C0E905C3C361FFF7A1FA0028BE
:1035E00008BF80BDBDE88040FCF760BF10B540F665
:1035F000AC0041F2000CC2F20000C4F2010C4FF426
:10360000E1324FF4805300214FF4806E0C24C0E966
:1036100000C2C0E90231C0E904E4C0E90611FFF7C5
:103620007FFA002808BF10BDBDE81040FCF73EBF80
:1036300010B540F6F40044F6000CC2F20000C4F2EB
:10364000000C4FF4E1324FF4805300214FF4806EB0
:103650000C24C0E900C2C0E90231C0E904E4C0E9B9
:103660000611FFF75DFA002808BF10BDBDE8104045
:10367000FCF71CBF80B540F28030C2F200004FF072
:10368000A04101600821A0F805100121C1710221AB
:10369000A0F80910FDF78AFB002808BF80BDBDE82F
:1036A0008040FCF703BF0000FEE70000FEE70000DB
:1036B0007047000070470000FDF706BD70B592B07E
:1036C00006AC20463021FCF75DFE002543F64000A5
:1036D0000595CDE90355CDE901550095C4F20200E9
:1036E0000168022641F080510160006800F08050BE
:1036F0000090009847F200000095C4F200000168B5
:1037000041F480410160006800F48040009000981E
:10371000092006904FF48030079001200B904FF461
:1037200080000D9004200E904820CDE90F06032064
:10373000119020460C96FDF737FF18B172B600BF06
:10374000FEE700BF0F20CDE901064FF48050CDE920
:10375000040501A802210395FDF714FE10B172B60D
:10376000FEE700BF12B070BD4EF68850CEF20000EA
:10377000016841F4700101607047000040F2D470AC
:10378000C2F20000FEF712BD40F61C00C2F20000BB
:10379000FEF70CBD40F66400C2F20000FEF706BD65
:1037A000B0B540F6FF3E0568C4F2000E40F2004C92
:1037B0007045C4F2010C25DCB0F1804F2FD040F2EF
:1037C0000043C4F20003984229D040F60003C4F23B
:1037D0000003984223D041F6FF73C4F200039842DD
:1037E00028DC70453ADCB0F1804F5BD040F20043FA
:1037F000C4F20003984255D040F60003C4F200031F
:103800004EE000BF40F60043C4F20003984206D0E9
:10381000604504D00023C4F201039842DBD14B6819
:1038200025F0700243EA020541F6FF73C4F200037B
:103830009842D6DD43F6FF73C4F2010398421FDCC1
:1038400042F20003C4F2000398422BD00023C4F2DA
:103850000103984226D0604524D028E040F600437A
:10386000C4F2000398421DD041F60003C4F20003E5
:10387000984217D041F60043C4F2000310E000BFA5
:1038800044F20003C4F2010398420BD044F6000353
:10389000C4F20103984205D044F20043C4F201038C
:1038A000984204D1CB6825F4407243EA02050A68C5
:1038B0008C684B69C46240F480648262644504BFD2
:1038C00009690163026825F0800142F0040219438E
:1038D0000260012242610160B0BD000040F63C1070
:1038E000C2F2000000680168C90636D5B0B582B0E2
:1038F00000210191016840F63C1401914068C2F238
:103900000004019001982046FEF730FD40F240107F
:10391000C2F20000006840F654214068C2F2000183
:10392000C0F1640040F6EE15088082B240F6F40063
:10393000C2F20005C2F200002946FFF741FB40F643
:103940005220C2F200000121017020462946642263
:10395000FFF772FA02B0BDE8B04040F63C10C2F288
:103960000000FEF713BE0000806B0021C185FEF74A
:103970000BBE0000806B01684A6990F84130212B32
:103980002DD112F080022AD00021C184016851E8B3
:10399000031F026821F0C00142E80313DBB1016894
:1039A00051E8031F026821F0C00142E8031393B1FC
:1039B000016851E8031F026821F0C00142E80313C7
:1039C0004BB1016851E8031F026821F0C00142E8D1
:1039D0000313002BDAD1202180F8411001684969D6
:1039E00090F84220222A40F07D8011F0400179D0E9
:1039F0000021C185016851E8031F026821F490711C
:103A000042E80313BBB3016851E8031F026821F4C5
:103A1000907142E8031373B3016851E8031F026811
:103A200021F4907142E803132BB3016851E8031F9E
:103A3000026821F4907142E80313002BDAD11AE0F6
:103A4000016851E8051F026821F0010142E80513F1
:103A5000DBB1016851E8051F026821F0010142E86D
:103A6000051393B1016851E8051F026821F00101B7
:103A700042E805134BB1016851E8051F026821F0C7
:103A8000010142E80513002BDAD1016B012924D191
:103A9000016851E8031F026821F0100142E8031396
:103AA000DBB1016851E8031F026821F0100142E810
:103AB000031393B1016851E8031F026821F010015C
:103AC00042E803134BB1016851E8031F026821F07B
:103AD000100142E80313002BDAD1202180F84210B4
:103AE00000210163416C41F010014164FEF74CBDBF
:103AF0000168806B0968C90500F19F800021C185BC
:103B0000016851E8031F026821F4807142E8031341
:103B1000E3B1016851E8031F026821F4807142E8B3
:103B200003139BB1016851E8031F026821F48071FF
:103B300042E8031353B1016851E8031F026821F4FE
:103B4000807142E80313002BDAD100BF016851E80D
:103B5000051F026821F0010142E80513BBB30168AB
:103B600051E8051F026821F0010142E8051373B313
:103B7000016851E8051F026821F0010142E80513C0
:103B80002BB3016851E8051F026821F0010142E8EA
:103B90000513002BDAD11AE0016851E8051F02680D
:103BA00021F0400142E80513DBB1016851E8051F2F
:103BB000026821F0400142E8051393B1016851E821
:103BC000051F026821F0400142E805134BB101686E
:103BD00051E8051F026821F0400142E80513002B5F
:103BE000DAD1202180F84210016B012925D100BFD4
:103BF000016851E8031F026821F0100142E8031335
:103C0000DBB1016851E8031F026821F0100142E8AE
:103C1000031393B1016851E8031F026821F01001FA
:103C200042E803134BB1016851E8031F026821F019
:103C3000100142E80313002BDAD100214163016B2C
:103C4000012918BFFFF7B8B9818DFEF78DBB0000C1
:103C5000806B01214163016B012918BFFFF7AEB9E9
:103C6000818D4908FEF780BB0168806B0968C90532
:103C700048BFFFF70FBA0021C18400BF016851E8B7
:103C8000051F026821F0800142E8051383B3016833
:103C900051E8051F026821F0800142E805133BB39B
:103CA000016851E8051F026821F0800142E8051310
:103CB000F3B1016851E8051F026821F0800142E874
:103CC0000513002BDAD113E0016851E8031F0268E5
:103CD00041F0400142E80313002B08BF7047016820
:103CE00051E8031F026841F0400142E8031393B119
:103CF000016851E8031F026841F0400142E80313E4
:103D00004BB1016851E8031F026841F0400142E8ED
:103D10000313002BD8D17047806BFFF7BDB90000AB
:103D200081B090F84210222921D183680246B3F570
:103D3000805F09D152F8281F52F8183C002B63D03D
:103D400003685B680AE000BF52F8281F13B90369D3
:103D5000002BF5D003685B6803F07F030B701168DC
:103D600001311160C18D01390A04C18502D001B051
:103D7000704700BF0168CA6822F02002CA60CA68A2
:103D800022F48072CA604A6922F001024A6120214D
:103D900080F8421000214163026B012A3CD101638B
:103DA000016851E8031F026821F0100142E8031383
:103DB000DBB1016851E8031F026821F0100142E8FD
:103DC000031393B1016851E8031F026821F0100149
:103DD00042E803134BB1016851E8031F026821F068
:103DE000100142E80313002BDAD101680A68D206F9
:103DF00006D5002200920A68009249680091009955
:103E0000818D01B0FEF7B0BA026852686FF35F228D
:103E100021F8022B8162A5E701B0FFF7CDB80000C1
:103E2000B0B50446006804F108030ECB05691943D8
:103E300025F440552A4302616269E3691143C2686F
:103E4000194349F20C639A431143C1604169A26965
:103E500021F4407141F20043114340F48062C4F206
:103E600001039A42416103D1FDF752FB02E000BF1A
:103E7000FDF73AFBE1694FF69C7563681922C0F6BD
:103E8000FF75B1F5004FA0FB02011FD15A00DB0FF7
:103E9000FCF700FA48F21F51C5F2EB11A0FB012319
:103EA0005A0905F1805302FB0300322303EBC000E3
:103EB000A0FB01014FF4F87000EA111000EB0210B2
:103EC000C1F34211084421688860B0BD9A009B0F7D
:103ED000FCF7E0F948F21F51C5F2EB11A0FB0123FA
:103EE0005A0902FB0500322303EB0010A0FB01017D
:103EF000F02000EA511000EB0210C1F34311084416
:103F000021688860B0BD000040F6AC00C2F200003D
:103F100000680168C90636D5B0B582B000210191AC
:103F2000016840F6AC0401914068C2F200040190BF
:103F300001982046FEF71AFA40F20020C2F2000073
:103F4000006840F688114068C2F20001C0F16400C8
:103F500040F28805088082B240F6F400C2F2000503
:103F6000C2F200002946FFF72BF840F68610C2F295
:103F7000000001210170204629466422FEF75CFF03
:103F800002B0BDE8B04040F6AC00C2F20000FEF75F
:103F9000FDBA000040F6F400C2F2000000680168BB
:103FA000C90632D510B582B000210191016840F6F2
:103FB000F40401914068C2F2000401900198204687
:103FC000FEF7D4F940F2C020C2F20000006840F2CF
:103FD0007E014068C2F20001C0F16400088040F632
:103FE0008411C2F20001088040F27000C2F20000A9
:103FF0000121017040F68A11C2F2000120466422BC
:10400000FEF71AFF02B0BDE8104040F6F400C2F21D
:104010000000FEF7BBBA000082B002F47F42B2F5A6
:10402000807F40F09980826B4FF6BF7322F480321C
:104030008263C268CFF6BD731A40C260029BC26839
:10404000DBB222F44012012BC26003D1C26842F4F9
:104050008012C26000220092009A01320092009AFF
:10406000B2F1706F00F2F0800269002A21D4009A48
:1040700001320092009AB2F1706F00F2E58002699D
:10408000002A16D4009A01320092009AB2F1706FA1
:1040900000F2DA800269002A0BD4009A0132009201
:1040A000009AB2F1706F00F2CF800269B2F1FF3F67
:1040B000D2DC0A220092009AAAB100BF009A013A0B
:1040C0000092009A7AB1009A013A0092009A52B195
:1040D000009A013A0092009A2AB1009A013A00929D
:1040E000009A002AEAD1026942F001020261009AB4
:1040F00001320092009AB2F1706F00F2A58002695D
:10410000D20720D0009A01320092009AB2F1706F6B
:1041100000F29A800269D20715D0009A013200920B
:10412000009AB2F1706F00F28F800269D2070AD054
:10413000009A01320092009AB2F1706F00F284800E
:104140000269D207D3D14FF0000C01F47F01B1F521
:10415000803F40F099808FE0C26842F04002C26028
:1041600000220192019A01320192019AB2F1706F1C
:1041700072D80269002A1ED4019A01320192019A72
:10418000B2F1706F68D80269002A14D4019A013222
:104190000192019AB2F1706F5ED80269002A0AD4C6
:1041A000019A01320192019AB2F1706F54D80269FA
:1041B000B2F1FF3FD6DC0A220192019AAAB100BFF8
:1041C000019A013A0192019A7AB1019A013A019257
:1041D000019A52B1019A013A0192019A2AB1019AC7
:1041E000013A0192019A002AEAD1026942F00102E1
:1041F0000261019A01320192019AB2F1706F2BD8DB
:104200000269D2071DD0019A01320192019AB2F1DE
:10421000706F21D80269D20713D0019A013201923E
:10422000019AB2F1706F17D80269D20709D0019ACA
:1042300001320192019AB2F1706F0DD80269D20772
:10424000D7D14FF0000C09E04FF0030C01F47F01CF
:10425000B1F5803F18D10FE04FF0030C826B13F4DF
:104260007F4F14BF22F4803242F48032826301F423
:104270007F01B1F5803F07D1816841F0060181607F
:10428000816841F020018160604602B07047000003
:104290000146806820F0010200208A60704700001B
:1042A00070B582B086460020CEF8000EDEF83800E9
:1042B00040F40010CEF83800DEF8380020F400207A
:1042C000CEF83800DEF8380020F48020CEF8380030
:1042D000DEF80C00400609D401F07F42DEF800044D
:1042E000B2F1807F04D140F0040003E0DEF8000466
:1042F00020F00400CEF800040B0A00200090009883
:10430000013000900098B0F1706F59D8DEF81000BD
:10431000002821D40098013000900098B0F1706F0F
:104320004ED8DEF81000002816D400980130009016
:104330000098B0F1706F43D8DEF8100000280BD45D
:104340000098013000900098B0F1706F38D8DEF816
:104350001000B0F1FF3FD2DC002000904FF48460E9
:10436000CEF810000098013000900098B0F1706F06
:1043700026D8DEF81000800620D500980130009085
:104380000098B0F1706F1BD8DEF81000800615D5CC
:104390000098013000900098B0F1706F10D8DEF8EE
:1043A000100080060AD50098013000900098B0F106
:1043B000706F05D8DEF810008006D3D4002000E02E
:1043C000012000220192019A01320192019AB2F178
:1043D000706F57D8DEF81020002A21D4019A0132DC
:1043E0000192019AB2F1706F4CD8DEF81020002AC9
:1043F00016D4019A01320192019AB2F1706F41D83C
:10440000DEF81020002A0BD4019A01320192019AA1
:10441000B2F1706F36D8DEF81020B2F1FF3FD2DC77
:10442000002201921022CEF81020019A013201924E
:10443000019AB2F1706F25D8DEF81020D20626D589
:10444000019A01320192019AB2F1706F1AD8DEF826
:104450001020D2061BD5019A01320192019AB2F1C5
:10446000706F13D8DEF81020D20610D5019A0132F1
:104470000192019AB2F1706F04D8DEF81020D206D2
:10448000D3D404E00120DCB21CB93BE00120DCB253
:10449000C4B303F0030C0023042C4FF0000218D324
:1044A000A4EB0C040EF5AC654FF0FF36043245F872
:1044B000586C45F8543C45F8386C45F8343C45F8A0
:1044C000186C45F8143CAE60EB60944205F1800531
:1044D000ECD1BCF1000F15D00EF5A06303EB421236
:1044E0004FF0FF340023BCF1010F9460D36009D07A
:1044F000BCF1020F9462D36204D04FF0FF33936497
:104500000023D3640022C4F204020023CEF8183042
:104510004FF0FF339645CEF814301FD08022CEF8EE
:1045200024208022C0F26002CEF82820E022C0F2CF
:104530004002CEF8002111F47F0F05D1DEF81810EB
:1045400041F01001CEF81810DEF818100822CAF257
:1045500020321143CEF8181002B070BD4FF4007332
:10456000536240F20023C0F20013936240F2003322
:10457000C0F2E003C2F8003111F47F0FE4D1DDE7AF
:10458000B0B50446C068002920F0C040E06000F0EB
:104590009980012940F0B080E0680A2540F0005081
:1045A000E0600A20FCF7C2FA54F8140FC00740F08C
:1045B0009C800A20FCF7BAFA2068C00740F09E8071
:1045C0000A20FCF7B3FA2068C00740F0A5800A2053
:1045D000FCF7ACFA2068C00740F0AC800A20FCF77A
:1045E000A5FA2068C00740F0B3800A20FCF79EFAC5
:1045F0002068C00740F0BA800A20FCF797FA2068CC
:10460000C00740F0C1800A20FCF790FA2068C0077C
:1046100040F0C8800A20FCF789FA2068C00740F003
:10462000CF800A20FCF782FA2068C00740F0D680CD
:104630000A20FCF77BFA2068C00740F0DD800A20E2
:10464000FCF774FA2068C00740F0E4800A20FCF709
:104650006DFA2068C00740F0EB800A20FCF766FA8C
:104660002068C00740F0F2800A20FCF75FFA20685B
:10467000C00740F0F9800A20FCF758FA2068C0070C
:1046800040F000810A20FCF751FA2068C00740F092
:1046900007810A20FCF74AFA2068C00740F00E8123
:1046A0000A20FCF743FA2068C00740F016810A2070
:1046B000FCF73CFA2068C825A5F1C800B0FA80F0E4
:1046C0004009B0BDE0680A2540F08040E0600A2063
:1046D000FCF72CFA54F8140FC00706D00A20FCF798
:1046E00025FA2068C00711D11425A5F1C800B0FA39
:1046F00080F04009B0BD00BF0120B0BD1425A5F178
:10470000C800B0FA80F04009B0BD00BF0A20FCF735
:104710000DFA2068C00707D11E25A5F1C800B0FA20
:1047200080F04009B0BD00BF0A20FCF7FFF9206807
:10473000C00707D12825A5F1C800B0FA80F04009CC
:10474000B0BD00BF0A20FCF7F1F92068C00707D10F
:104750003225A5F1C800B0FA80F04009B0BD00BF15
:104760000A20FCF7E3F92068C00707D13C25A5F132
:10477000C800B0FA80F04009B0BD00BF0A20FCF7C5
:10478000D5F92068C00707D14625A5F1C800B0FAC1
:1047900080F04009B0BD00BF0A20FCF7C7F92068CF
:1047A000C00707D15025A5F1C800B0FA80F0400934
:1047B000B0BD00BF0A20FCF7B9F92068C00707D1D7
:1047C0005A25A5F1C800B0FA80F04009B0BD00BF7D
:1047D0000A20FCF7ABF92068C00707D16425A5F1D2
:1047E000C800B0FA80F04009B0BD00BF0A20FCF755
:1047F0009DF92068C00707D16E25A5F1C800B0FA61
:1048000080F04009B0BD00BF0A20FCF78FF9206896
:10481000C00707D17825A5F1C800B0FA80F040099B
:10482000B0BD00BF0A20FCF781F92068C00707D19E
:104830008225A5F1C800B0FA80F04009B0BD00BFE4
:104840000A20FCF773F92068C00707D18C25A5F171
:10485000C800B0FA80F04009B0BD00BF0A20FCF7E4
:1048600065F92068C00707D19625A5F1C800B0FA00
:1048700080F04009B0BD00BF0A20FCF757F920685E
:10488000C00707D1A025A5F1C800B0FA80F0400903
:10489000B0BD00BF0A20FCF749F92068C00707D166
:1048A000AA25A5F1C800B0FA80F04009B0BD00BF4C
:1048B0000A20FCF73BF92068C00707D1B425A5F111
:1048C000C800B0FA80F04009B0BD00BF0A20FCF774
:1048D0002DF92068C0077FF4EAAEBE25A5F1C80017
:1048E000B0FA80F04009B0BDFEE70000FCF7FAFB2B
:1048F000FEF7E4FEFEF75AFCFEF70AFCFEF7D0FBDB
:10490000FEF7EAFBFEF76AFDFEF770FEFEF790FE8B
:10491000FEF7B0FEFEF784FDFEF79EFDFEF7D0FD2C
:10492000FEF746FEFEF708FE40F6AC00C2F20000BD
:10493000026840F63C14D168C2F2000441F0100154
:10494000D160226840F6F406D168C2F2000641F058
:104950001001D160326840F27005D168C2F20005E2
:1049600041F01001D16005F118016422FEF764FAEC
:1049700040F6EE11C2F2000120466422FEF75CFA16
:1049800040F68A17C2F20007304639466422FEF725
:1049900053FA40F66404C2F200042046FDF7B0F971
:1049A00040F61C08C2F200084046FDF7A9F920466F
:1049B000FDF7FCF94046FDF7F9F940F2D474C2F274
:1049C000000420463C21FDF791FB40F2000B4FF024
:1049D00000084FF00409C4F2020BA5F80C8085F81A
:1049E0000B8003E04FF49670FCF7A0F828780128BC
:1049F00038D1387885F80080012819D05A2831D16B
:104A0000FA78B979F879212A08BF01281CD0222A1E
:104A100008BF01281CD0232A08BF01281CD0162A51
:104A20001ED0152A5AD140EA0120A8811AE000BF01
:104A30000120EA89687040F6AC00C2F200003946F5
:104A4000FEF7BEFA0EE000BF012028710AE000BFA9
:104A50000120E87006E000BF0120687202E000BF9C
:104A6000E87200BF4FF49670FCF760F820680422EB
:104A7000406AA5F80E90010A686138707970010CDF
:104A8000000EB970F87030463946FEF799FA287969
:104A900001280FD15846802101224FF0010AFCF76E
:104AA00079F985F8048085F808A0BAF1010F06D0DD
:104AB00098E700BF95F808A0BAF1010F92D1687984
:104AC00001287FF48FAFE87801287FF48BAF40F6A0
:104AD0006400C2F20000FDF7C1F883E70120EA8913
:104AE000A87040F63C10C2F20000A8E7F1EE100AF0
:104AF0004FF6FF71C0F2C03120EA010040F0407073
:104B0000E1EE100A70470000000000000000010202
:104B10000304060708090000000001020304000660
:104B20001016000610160000484B00080000002078
:104B300010000000EC010008584B00081000002095
:104B4000501000000C0200080100000010000000DE
:084B50000024F4000000000045
:040000050800018965
:00000001FF
